{
  "contractName": "Adoption",
  "abi": [
    {
      "constant": true,
      "inputs": [
        {
          "name": "",
          "type": "uint256"
        }
      ],
      "name": "adopters",
      "outputs": [
        {
          "name": "",
          "type": "address"
        }
      ],
      "payable": false,
      "stateMutability": "view",
      "type": "function"
    },
    {
      "constant": true,
      "inputs": [
        {
          "name": "",
          "type": "address"
        },
        {
          "name": "",
          "type": "uint256"
        }
      ],
      "name": "personalitems",
      "outputs": [
        {
          "name": "stuffCode",
          "type": "uint256"
        },
        {
          "name": "cost",
          "type": "uint256"
        },
        {
          "name": "src",
          "type": "string"
        },
        {
          "name": "title",
          "type": "string"
        }
      ],
      "payable": false,
      "stateMutability": "view",
      "type": "function"
    },
    {
      "constant": false,
      "inputs": [
        {
          "name": "buyer",
          "type": "address"
        },
        {
          "name": "stuffCode",
          "type": "uint256"
        },
        {
          "name": "cost",
          "type": "uint256"
        },
        {
          "name": "src",
          "type": "string"
        },
        {
          "name": "title",
          "type": "string"
        }
      ],
      "name": "adopt",
      "outputs": [
        {
          "name": "",
          "type": "uint256"
        }
      ],
      "payable": false,
      "stateMutability": "nonpayable",
      "type": "function"
    },
    {
      "constant": true,
      "inputs": [
        {
          "name": "buyer",
          "type": "address"
        }
      ],
      "name": "getAdopters",
      "outputs": [
        {
          "name": "",
          "type": "string"
        }
      ],
      "payable": false,
      "stateMutability": "view",
      "type": "function"
    },
    {
      "constant": false,
      "inputs": [
        {
          "name": "buyer",
          "type": "address"
        },
        {
          "name": "index",
          "type": "uint256"
        }
      ],
      "name": "deleteAdopter",
      "outputs": [],
      "payable": false,
      "stateMutability": "nonpayable",
      "type": "function"
    }
  ],
  "bytecode": "0x608060405234801561001057600080fd5b50611209806100206000396000f30060806040526004361061006d576000357c0100000000000000000000000000000000000000000000000000000000900463ffffffff16806343ae80d3146100725780637ad2dfa0146100df578063cc0f69fa1461019b578063e14f2090146101e8578063f9c1a9ba146102df575b600080fd5b34801561007e57600080fd5b5061009d6004803603810190808035906020019092919050505061041f565b604051808273ffffffffffffffffffffffffffffffffffffffff1673ffffffffffffffffffffffffffffffffffffffff16815260200191505060405180910390f35b3480156100eb57600080fd5b50610120600480360381019080803573ffffffffffffffffffffffffffffffffffffffff169060200190929190505050610454565b6040518080602001828103825283818151815260200191508051906020019080838360005b83811015610160578082015181840152602081019050610145565b50505050905090810190601f16801561018d5780820380516001836020036101000a031916815260200191505b509250505060405180910390f35b3480156101a757600080fd5b506101e6600480360381019080803573ffffffffffffffffffffffffffffffffffffffff16906020019092919080359060200190929190505050610bc2565b005b3480156101f457600080fd5b506102c9600480360381019080803573ffffffffffffffffffffffffffffffffffffffff1690602001909291908035906020019092919080359060200190929190803590602001908201803590602001908080601f0160208091040260200160405190810160405280939291908181526020018383808284378201915050505050509192919290803590602001908201803590602001908080601f0160208091040260200160405190810160405280939291908181526020018383808284378201915050505050509192919290505050610c53565b6040518082815260200191505060405180910390f35b3480156102eb57600080fd5b5061032a600480360381019080803573ffffffffffffffffffffffffffffffffffffffff16906020019092919080359060200190929190505050610d96565b604051808581526020018481526020018060200180602001838103835285818151815260200191508051906020019080838360005b8381101561037a57808201518184015260208101905061035f565b50505050905090810190601f1680156103a75780820380516001836020036101000a031916815260200191505b50838103825284818151815260200191508051906020019080838360005b838110156103e05780820151818401526020810190506103c5565b50505050905090810190601f16801561040d5780820380516001836020036101000a031916815260200191505b50965050505050505060405180910390f35b60008160108110151561042e57fe5b016000915054906101000a900473ffffffffffffffffffffffffffffffffffffffff1681565b60608060606000606080606080606080601060008c73ffffffffffffffffffffffffffffffffffffffff1673ffffffffffffffffffffffffffffffffffffffff168152602001908152602001600020805480602002602001604051908101604052809291908181526020016000905b8282101561064e5783829060005260206000209060040201608060405190810160405290816000820154815260200160018201548152602001600282018054600181600116156101000203166002900480601f0160208091040260200160405190810160405280929190818152602001828054600181600116156101000203166002900480156105945780601f1061056957610100808354040283529160200191610594565b820191906000526020600020905b81548152906001019060200180831161057757829003601f168201915b50505050508152602001600382018054600181600116156101000203166002900480601f0160208091040260200160405190810160405280929190818152602001828054600181600116156101000203166002900480156106365780601f1061060b57610100808354040283529160200191610636565b820191906000526020600020905b81548152906001019060200180831161061957829003601f168201915b505050505081525050815260200190600101906104c3565b505050509850600096505b8851871015610bb157610686898881518110151561067357fe5b9060200190602002015160000151610f12565b95506106ac898881518110151561069957fe5b9060200190602002015160200151610f12565b945088878151811015156106bc57fe5b9060200190602002015160400151935088878151811015156106da57fe5b906020019060200201516060015192506106f387610f12565b91506040516020018060000190506040516020818303038152906040526040518082805190602001908083835b6020831015156107455780518252602082019150602081019050602083039250610720565b6001836020036101000a038019825116818451168082178552505050505050905001915050604051809103902060001916846040516020018082805190602001908083835b6020831015156107af578051825260208201915060208101905060208303925061078a565b6001836020036101000a0380198251168184511680821785525050505050509050019150506040516020818303038152906040526040518082805190602001908083835b60208310151561081857805182526020820191506020810190506020830392506107f3565b6001836020036101000a038019825116818451168082178552505050505050905001915050604051809103902060001916141561085457610ba4565b85858585856040516020018086805190602001908083835b602083101515610891578051825260208201915060208101905060208303925061086c565b6001836020036101000a038019825116818451168082178552505050505050905001807f2f2f00000000000000000000000000000000000000000000000000000000000081525060020185805190602001908083835b60208310151561090c57805182526020820191506020810190506020830392506108e7565b6001836020036101000a038019825116818451168082178552505050505050905001807f2f2f00000000000000000000000000000000000000000000000000000000000081525060020184805190602001908083835b6020831015156109875780518252602082019150602081019050602083039250610962565b6001836020036101000a038019825116818451168082178552505050505050905001807f2f2f00000000000000000000000000000000000000000000000000000000000081525060020183805190602001908083835b602083101515610a0257805182526020820191506020810190506020830392506109dd565b6001836020036101000a038019825116818451168082178552505050505050905001807f2f2f00000000000000000000000000000000000000000000000000000000000081525060020182805190602001908083835b602083101515610a7d5780518252602082019150602081019050602083039250610a58565b6001836020036101000a03801982511681845116808217855250505050505090500195505050505050604051602081830303815290604052905087816040516020018083805190602001908083835b602083101515610af15780518252602082019150602081019050602083039250610acc565b6001836020036101000a03801982511681845116808217855250505050505090500182805190602001908083835b602083101515610b445780518252602082019150602081019050602083039250610b1f565b6001836020036101000a038019825116818451168082178552505050505050905001807f2c2c2c2c000000000000000000000000000000000000000000000000000000008152506004019250505060405160208183030381529060405297505b8680600101975050610659565b879950505050505050505050919050565b601060008373ffffffffffffffffffffffffffffffffffffffff1673ffffffffffffffffffffffffffffffffffffffff16815260200190815260200160002081815481101515610c0e57fe5b90600052602060002090600402016000808201600090556001820160009055600282016000610c3d9190611069565b600382016000610c4d9190611069565b50505050565b60008060008610158015610c685750600f8611155b1515610c7357600080fd5b85816000018190555084816001018190555083816002019080519060200190610c9d9291906110b1565b5082816003019080519060200190610cb69291906110b1565b50601060008873ffffffffffffffffffffffffffffffffffffffff1673ffffffffffffffffffffffffffffffffffffffff1681526020019081526020016000208190806001815401808255809150509060018203906000526020600020906004020160009091929091909150600082015481600001556001820154816001015560028201816002019080546001816001161561010002031660029004610d5d929190611131565b5060038201816003019080546001816001161561010002031660029004610d85929190611131565b505050508591505095945050505050565b601060205281600052604060002081815481101515610db157fe5b906000526020600020906004020160009150915050806000015490806001015490806002018054600181600116156101000203166002900480601f016020809104026020016040519081016040528092919081815260200182805460018160011615610100020316600290048015610e6a5780601f10610e3f57610100808354040283529160200191610e6a565b820191906000526020600020905b815481529060010190602001808311610e4d57829003601f168201915b505050505090806003018054600181600116156101000203166002900480601f016020809104026020016040519081016040528092919081815260200182805460018160011615610100020316600290048015610f085780601f10610edd57610100808354040283529160200191610f08565b820191906000526020600020905b815481529060010190602001808311610eeb57829003601f168201915b5050505050905084565b60606000806060600080861415610f60576040805190810160405280600181526020017f30000000000000000000000000000000000000000000000000000000000000008152509450611060565b8593505b600084141515610f8a578280600101935050600a84811515610f8257fe5b049350610f64565b826040519080825280601f01601f191660200182016040528015610fbd5781602001602082028038833980820191505090505b5091506001830390505b60008614151561105c57600a86811515610fdd57fe5b066030017f01000000000000000000000000000000000000000000000000000000000000000282828060019003935081518110151561101857fe5b9060200101907effffffffffffffffffffffffffffffffffffffffffffffffffffffffffffff1916908160001a905350600a8681151561105457fe5b049550610fc7565b8194505b50505050919050565b50805460018160011615610100020316600290046000825580601f1061108f57506110ae565b601f0160209004906000526020600020908101906110ad91906111b8565b5b50565b828054600181600116156101000203166002900490600052602060002090601f016020900481019282601f106110f257805160ff1916838001178555611120565b82800160010185558215611120579182015b8281111561111f578251825591602001919060010190611104565b5b50905061112d91906111b8565b5090565b828054600181600116156101000203166002900490600052602060002090601f016020900481019282601f1061116a57805485556111a7565b828001600101855582156111a757600052602060002091601f016020900482015b828111156111a657825482559160010191906001019061118b565b5b5090506111b491906111b8565b5090565b6111da91905b808211156111d65760008160009055506001016111be565b5090565b905600a165627a7a72305820bc42cfcd19e5c2ff54fa646eb16ac1e4ffce80f0b5b5d9bcf17dd815bf8e298c0029",
  "source": "pragma solidity  >=0.4.24 <0.7.0;\r\n\r\ncontract Adoption {\r\n    address[16] public adopters;\r\n    struct Item { // Struct\r\n        uint stuffCode;\r\n        uint cost;\r\n        string src;\r\n        string title;\r\n    }\r\n    mapping(address=> Item[]) public personalitems;\r\n    // Adopting a pet\r\n    function adopt(address buyer, uint stuffCode, uint cost, string memory src, string memory title) public returns (uint) {\r\n        require(stuffCode >= 0 && stuffCode <= 15);\r\n        // string memory nstuffCode = uint2str(stuffCode);\r\n        // string memory ncost = uint2str(cost);\r\n        // string memory s = string(abi.encodePacked(nstuffCode, \"//\", ncost, \"//\", src, \"//\", title));\r\n        Item storage item;\r\n        item.stuffCode = stuffCode;\r\n        item.cost = cost;\r\n        item.src = src;\r\n        item.title = title;\r\n        personalitems[buyer].push(item);\r\n\r\n        return stuffCode;\r\n    }\r\n    // Retrieving the adopters\r\n    function getAdopters(address buyer) public view returns (string memory) {\r\n        Item[] memory items = personalitems[buyer];\r\n        string memory ritems;\r\n        \r\n        for( uint i=0; i<items.length; i++){\r\n            string memory stuffCode = uint2str(items[i].stuffCode);\r\n            string memory cost = uint2str(items[i].cost);\r\n            string memory src = items[i].src;\r\n            string memory title = items[i].title;\r\n            string memory index = uint2str(i);\r\n            if(keccak256(abi.encodePacked(src)) == keccak256(abi.encodePacked(\"\"))){\r\n                continue;\r\n            }\r\n            string memory val = string(abi.encodePacked(stuffCode, \"//\", cost, \"//\", src, \"//\", title, \"//\", index));\r\n            \r\n            ritems = string(abi.encodePacked(ritems, val, \",,,,\"));\r\n        }\r\n\r\n        return ritems;\r\n\r\n    }\r\n    function deleteAdopter(address buyer, uint index) public {\r\n        // Item[] memory items = personalitems[buyer];\r\n        // items[index].stuffCode=99999;\r\n        // items[index].cost=99999;\r\n        // items[index].src=\"xxxx\";\r\n        // items[index].title=\"xxx\";\r\n        delete personalitems[buyer][index];\r\n        \r\n    }    \r\n    \r\n    function uint2str(uint i) internal pure returns (string){\r\n        if (i == 0) return \"0\";\r\n        uint j = i;\r\n        uint length;\r\n        while (j != 0){\r\n            length++;\r\n            j /= 10;\r\n        }\r\n        bytes memory bstr = new bytes(length);\r\n        uint k = length - 1;\r\n        while (i != 0){\r\n            bstr[k--] = byte(48 + i % 10);\r\n            i /= 10;\r\n        }\r\n        return string(bstr);\r\n    }       \r\n\r\n}",
  "sourcePath": "D:\\BlockChainDApp\\Store_Dapp\\contracts\\Adoption.sol",
  "compiler": {
    "name": "solc",
    "version": "0.4.24+commit.e67f0147.Emscripten.clang"
  },
  "schemaVersion": "3.0.23",
  "updatedAt": "2020-03-17T02:38:20.005Z",
  "networkType": "ethereum",
  "devdoc": {
    "methods": {}
  },
  "userdoc": {
    "methods": {}
  }
}