{
  "contractName": "Adoption",
  "abi": [
    {
      "constant": true,
      "inputs": [
        {
          "name": "",
          "type": "uint256"
        }
      ],
      "name": "adopters",
      "outputs": [
        {
          "name": "",
          "type": "address"
        }
      ],
      "payable": false,
      "stateMutability": "view",
      "type": "function"
    },
    {
      "constant": true,
      "inputs": [
        {
          "name": "",
          "type": "address"
        },
        {
          "name": "",
          "type": "uint256"
        }
      ],
      "name": "personalitems",
      "outputs": [
        {
          "name": "",
          "type": "string"
        }
      ],
      "payable": false,
      "stateMutability": "view",
      "type": "function"
    },
    {
      "constant": false,
      "inputs": [
        {
          "name": "buyer",
          "type": "address"
        },
        {
          "name": "stuffCode",
          "type": "uint256"
        },
        {
          "name": "cost",
          "type": "uint256"
        },
        {
          "name": "src",
          "type": "string"
        },
        {
          "name": "title",
          "type": "string"
        }
      ],
      "name": "adopt",
      "outputs": [
        {
          "name": "",
          "type": "uint256"
        }
      ],
      "payable": false,
      "stateMutability": "nonpayable",
      "type": "function"
    },
    {
      "constant": true,
      "inputs": [
        {
          "name": "buyer",
          "type": "address"
        }
      ],
      "name": "getAdopters",
      "outputs": [
        {
          "name": "",
          "type": "string"
        }
      ],
      "payable": false,
      "stateMutability": "view",
      "type": "function"
    },
    {
      "constant": false,
      "inputs": [
        {
          "name": "buyer",
          "type": "address"
        },
        {
          "name": "index",
          "type": "uint256"
        }
      ],
      "name": "deleteAdopter",
      "outputs": [],
      "payable": false,
      "stateMutability": "nonpayable",
      "type": "function"
    }
  ],
  "bytecode": "0x608060405234801561001057600080fd5b50610f5a806100206000396000f30060806040526004361061006d576000357c0100000000000000000000000000000000000000000000000000000000900463ffffffff16806343ae80d3146100725780637ad2dfa0146100af578063cc0f69fa146100ec578063e14f209014610115578063f9c1a9ba14610152575b600080fd5b34801561007e57600080fd5b5061009960048036036100949190810190610cdd565b61018f565b6040516100a69190610d90565b60405180910390f35b3480156100bb57600080fd5b506100d660048036036100d19190810190610bd1565b6101c4565b6040516100e39190610dcd565b60405180910390f35b3480156100f857600080fd5b50610113600480360361010e9190810190610bfa565b6104a0565b005b34801561012157600080fd5b5061013c60048036036101379190810190610c36565b6105e4565b6040516101499190610def565b60405180910390f35b34801561015e57600080fd5b5061017960048036036101749190810190610bfa565b61088f565b6040516101869190610dab565b60405180910390f35b60008160108110151561019e57fe5b016000915054906101000a900473ffffffffffffffffffffffffffffffffffffffff1681565b606080606060006060601060008773ffffffffffffffffffffffffffffffffffffffff1673ffffffffffffffffffffffffffffffffffffffff168152602001908152602001600020805480602002602001604051908101604052809291908181526020016000905b828210156102e8578382906000526020600020018054600181600116156101000203166002900480601f0160208091040260200160405190810160405280929190818152602001828054600181600116156101000203166002900480156102d45780601f106102a9576101008083540402835291602001916102d4565b820191906000526020600020905b8154815290600101906020018083116102b757829003601f168201915b50505050508152602001906001019061022c565b505050509350600091505b83518210156104945761030582610957565b905082848381518110151561031657fe5b90602001906020020151826040516020018084805190602001908083835b6020831015156103595780518252602082019150602081019050602083039250610334565b6001836020036101000a03801982511681845116808217855250505050505090500183805190602001908083835b6020831015156103ac5780518252602082019150602081019050602083039250610387565b6001836020036101000a038019825116818451168082178552505050505050905001807f2f2f00000000000000000000000000000000000000000000000000000000000081525060020182805190602001908083835b6020831015156104275780518252602082019150602081019050602083039250610402565b6001836020036101000a038019825116818451168082178552505050505050905001807f2c2c2c2c000000000000000000000000000000000000000000000000000000008152506004019350505050604051602081830303815290604052925081806001019250506102f3565b82945050505050919050565b6060601060008473ffffffffffffffffffffffffffffffffffffffff1673ffffffffffffffffffffffffffffffffffffffff168152602001908152602001600020805480602002602001604051908101604052809291908181526020016000905b828210156105bd578382906000526020600020018054600181600116156101000203166002900480601f0160208091040260200160405190810160405280929190818152602001828054600181600116156101000203166002900480156105a95780601f1061057e576101008083540402835291602001916105a9565b820191906000526020600020905b81548152906001019060200180831161058c57829003601f168201915b505050505081526020019060010190610501565b50505050905080828151811015156105d157fe5b9060200190602002016060815250505050565b60006060806060600088101580156105fd5750600f8811155b151561060857600080fd5b61061188610957565b925061061c87610957565b9150828287876040516020018085805190602001908083835b60208310151561065a5780518252602082019150602081019050602083039250610635565b6001836020036101000a038019825116818451168082178552505050505050905001807f2f2f00000000000000000000000000000000000000000000000000000000000081525060020184805190602001908083835b6020831015156106d557805182526020820191506020810190506020830392506106b0565b6001836020036101000a038019825116818451168082178552505050505050905001807f2f2f00000000000000000000000000000000000000000000000000000000000081525060020183805190602001908083835b602083101515610750578051825260208201915060208101905060208303925061072b565b6001836020036101000a038019825116818451168082178552505050505050905001807f2f2f00000000000000000000000000000000000000000000000000000000000081525060020182805190602001908083835b6020831015156107cb57805182526020820191506020810190506020830392506107a6565b6001836020036101000a0380198251168184511680821785525050505050509050019450505050506040516020818303038152906040529050601060008a73ffffffffffffffffffffffffffffffffffffffff1673ffffffffffffffffffffffffffffffffffffffff16815260200190815260200160002081908060018154018082558091505090600182039060005260206000200160009091929091909150908051906020019061087e929190610aae565b505087935050505095945050505050565b6010602052816000526040600020818154811015156108aa57fe5b90600052602060002001600091509150508054600181600116156101000203166002900480601f01602080910402602001604051908101604052809291908181526020018280546001816001161561010002031660029004801561094f5780601f106109245761010080835404028352916020019161094f565b820191906000526020600020905b81548152906001019060200180831161093257829003601f168201915b505050505081565b606060008060606000808614156109a5576040805190810160405280600181526020017f30000000000000000000000000000000000000000000000000000000000000008152509450610aa5565b8593505b6000841415156109cf578280600101935050600a848115156109c757fe5b0493506109a9565b826040519080825280601f01601f191660200182016040528015610a025781602001602082028038833980820191505090505b5091506001830390505b600086141515610aa157600a86811515610a2257fe5b066030017f010000000000000000000000000000000000000000000000000000000000000002828280600190039350815181101515610a5d57fe5b9060200101907effffffffffffffffffffffffffffffffffffffffffffffffffffffffffffff1916908160001a905350600a86811515610a9957fe5b049550610a0c565b8194505b50505050919050565b828054600181600116156101000203166002900490600052602060002090601f016020900481019282601f10610aef57805160ff1916838001178555610b1d565b82800160010185558215610b1d579182015b82811115610b1c578251825591602001919060010190610b01565b5b509050610b2a9190610b2e565b5090565b610b5091905b80821115610b4c576000816000905550600101610b34565b5090565b90565b6000610b5f8235610ea3565b905092915050565b600082601f8301121515610b7a57600080fd5b8135610b8d610b8882610e37565b610e0a565b91508082526020830160208301858383011115610ba957600080fd5b610bb4838284610ecd565b50505092915050565b6000610bc98235610ec3565b905092915050565b600060208284031215610be357600080fd5b6000610bf184828501610b53565b91505092915050565b60008060408385031215610c0d57600080fd5b6000610c1b85828601610b53565b9250506020610c2c85828601610bbd565b9150509250929050565b600080600080600060a08688031215610c4e57600080fd5b6000610c5c88828901610b53565b9550506020610c6d88828901610bbd565b9450506040610c7e88828901610bbd565b935050606086013567ffffffffffffffff811115610c9b57600080fd5b610ca788828901610b67565b925050608086013567ffffffffffffffff811115610cc457600080fd5b610cd088828901610b67565b9150509295509295909350565b600060208284031215610cef57600080fd5b6000610cfd84828501610bbd565b91505092915050565b610d0f81610e79565b82525050565b6000610d2082610e6e565b808452610d34816020860160208601610edc565b610d3d81610f0f565b602085010191505092915050565b6000610d5682610e63565b808452610d6a816020860160208601610edc565b610d7381610f0f565b602085010191505092915050565b610d8a81610e99565b82525050565b6000602082019050610da56000830184610d06565b92915050565b60006020820190508181036000830152610dc58184610d4b565b905092915050565b60006020820190508181036000830152610de78184610d15565b905092915050565b6000602082019050610e046000830184610d81565b92915050565b6000604051905081810181811067ffffffffffffffff82111715610e2d57600080fd5b8060405250919050565b600067ffffffffffffffff821115610e4e57600080fd5b601f19601f8301169050602081019050919050565b600081519050919050565b600081519050919050565b600073ffffffffffffffffffffffffffffffffffffffff82169050919050565b6000819050919050565b600073ffffffffffffffffffffffffffffffffffffffff82169050919050565b6000819050919050565b82818337600083830152505050565b60005b83811015610efa578082015181840152602081019050610edf565b83811115610f09576000848401525b50505050565b6000601f19601f83011690509190505600a265627a7a723058208f8b2fa59c35010f7c7c41f9fda315f51df89715ad7aa0a798123d54295cd9596c6578706572696d656e74616cf50037",
  "source": "pragma solidity  >=0.4.24 <0.7.0;\r\npragma experimental ABIEncoderV2;\r\ncontract Adoption {\r\n    address[16] public adopters;\r\n    struct Item { // Struct\r\n        uint cost;\r\n        bytes name;\r\n    }\r\n    mapping(address=> string[]) public personalitems;\r\n    // Adopting a pet\r\n    function adopt(address buyer, uint stuffCode, uint cost, string src, string title) public returns (uint) {\r\n        require(stuffCode >= 0 && stuffCode <= 15);\r\n        string memory nstuffCode = uint2str(stuffCode);\r\n        string memory ncost = uint2str(cost);\r\n        string memory s = string(abi.encodePacked(nstuffCode, \"//\", ncost, \"//\", src, \"//\", title));\r\n        \r\n        personalitems[buyer].push(s);\r\n\r\n        return stuffCode;\r\n    }\r\n    // Retrieving the adopters\r\n    function getAdopters(address buyer) public view returns (string memory) {\r\n        string[] memory items = personalitems[buyer];\r\n        string memory ritems;\r\n        \r\n        for( uint i=0; i<items.length; i++){\r\n            string memory index = uint2str(i);\r\n            ritems = string(abi.encodePacked(ritems,items[i],\"//\", index, \",,,,\"));\r\n        }\r\n\r\n        return ritems;\r\n\r\n    }\r\n    function deleteAdopter(address buyer, uint index) public {\r\n        string[] memory items = personalitems[buyer];\r\n        delete items[index];\r\n    }    \r\n    \r\n    function uint2str(uint i) internal pure returns (string){\r\n        if (i == 0) return \"0\";\r\n        uint j = i;\r\n        uint length;\r\n        while (j != 0){\r\n            length++;\r\n            j /= 10;\r\n        }\r\n        bytes memory bstr = new bytes(length);\r\n        uint k = length - 1;\r\n        while (i != 0){\r\n            bstr[k--] = byte(48 + i % 10);\r\n            i /= 10;\r\n        }\r\n        return string(bstr);\r\n    }       \r\n\r\n}",
  "sourcePath": "D:\\BlockChainDApp\\Store_Dapp\\contracts\\Adoption.sol",
  "compiler": {
    "name": "solc",
    "version": "0.4.24+commit.e67f0147.Emscripten.clang"
  },
  "schemaVersion": "3.0.23",
  "updatedAt": "2020-03-12T09:54:27.661Z",
  "networkType": "ethereum",
  "devdoc": {
    "methods": {}
  },
  "userdoc": {
    "methods": {}
  }
}