{
  "contractName": "BlackList",
  "abi": [
    {
      "constant": true,
      "inputs": [
        {
          "name": "",
          "type": "address"
        }
      ],
      "name": "blackList",
      "outputs": [
        {
          "name": "",
          "type": "int8"
        }
      ],
      "payable": false,
      "stateMutability": "view",
      "type": "function"
    },
    {
      "inputs": [],
      "payable": false,
      "stateMutability": "nonpayable",
      "type": "constructor"
    },
    {
      "anonymous": false,
      "inputs": [
        {
          "indexed": true,
          "name": "target",
          "type": "address"
        }
      ],
      "name": "Blacklisted",
      "type": "event"
    },
    {
      "anonymous": false,
      "inputs": [
        {
          "indexed": true,
          "name": "target",
          "type": "address"
        }
      ],
      "name": "DeleteFromBlacklist",
      "type": "event"
    },
    {
      "constant": false,
      "inputs": [
        {
          "name": "_addr",
          "type": "address"
        }
      ],
      "name": "blacklisting",
      "outputs": [],
      "payable": false,
      "stateMutability": "nonpayable",
      "type": "function"
    },
    {
      "constant": false,
      "inputs": [
        {
          "name": "_addr",
          "type": "address"
        }
      ],
      "name": "deleteFromBlacklist",
      "outputs": [],
      "payable": false,
      "stateMutability": "nonpayable",
      "type": "function"
    },
    {
      "constant": true,
      "inputs": [],
      "name": "getBlacklist",
      "outputs": [
        {
          "name": "",
          "type": "address[]"
        }
      ],
      "payable": false,
      "stateMutability": "view",
      "type": "function"
    }
  ],
  "bytecode": "0x608060405234801561001057600080fd5b50610527806100206000396000f300608060405260043610610062576000357c0100000000000000000000000000000000000000000000000000000000900463ffffffff168063338d6c30146100675780634838d165146100d35780638a294c60146101305780638de6b34314610173575b600080fd5b34801561007357600080fd5b5061007c6101b6565b6040518080602001828103825283818151815260200191508051906020019060200280838360005b838110156100bf5780820151818401526020810190506100a4565b505050509050019250505060405180910390f35b3480156100df57600080fd5b50610114600480360381019080803573ffffffffffffffffffffffffffffffffffffffff169060200190929190505050610244565b604051808260000b60000b815260200191505060405180910390f35b34801561013c57600080fd5b50610171600480360381019080803573ffffffffffffffffffffffffffffffffffffffff169060200190929190505050610264565b005b34801561017f57600080fd5b506101b4600480360381019080803573ffffffffffffffffffffffffffffffffffffffff16906020019092919050505061036b565b005b6060600180548060200260200160405190810160405280929190818152602001828054801561023a57602002820191906000526020600020905b8160009054906101000a900473ffffffffffffffffffffffffffffffffffffffff1673ffffffffffffffffffffffffffffffffffffffff16815260200190600101908083116101f0575b5050505050905090565b60006020528060005260406000206000915054906101000a900460000b81565b60016000808373ffffffffffffffffffffffffffffffffffffffff1673ffffffffffffffffffffffffffffffffffffffff16815260200190815260200160002060006101000a81548160ff021916908360000b60ff16021790555060018190806001815401808255809150509060018203906000526020600020016000909192909190916101000a81548173ffffffffffffffffffffffffffffffffffffffff021916908373ffffffffffffffffffffffffffffffffffffffff160217905550508073ffffffffffffffffffffffffffffffffffffffff167fffa4e6181777692565cf28528fc88fd1516ea86b56da075235fa575af6a4b85560405160405180910390a250565b60007fffffffffffffffffffffffffffffffffffffffffffffffffffffffffffffffff6000808473ffffffffffffffffffffffffffffffffffffffff1673ffffffffffffffffffffffffffffffffffffffff16815260200190815260200160002060006101000a81548160ff021916908360000b60ff160217905550600090505b6001805490508110156104b4578173ffffffffffffffffffffffffffffffffffffffff1660018281548110151561041f57fe5b9060005260206000200160009054906101000a900473ffffffffffffffffffffffffffffffffffffffff1673ffffffffffffffffffffffffffffffffffffffff1614156104a75760018181548110151561047557fe5b9060005260206000200160006101000a81549073ffffffffffffffffffffffffffffffffffffffff02191690556104b4565b80806001019150506103ec565b8173ffffffffffffffffffffffffffffffffffffffff167f2e5392b52e98bf05bdf3784aaec667371398a6ea4fb965a2894852471999bca960405160405180910390a250505600a165627a7a723058203e59b4ad73caf789589fa861429caed1fb81b50fe0dbd65829f275ef0271faaa0029",
  "source": "pragma solidity 0.4.24;\r\n\r\ncontract BlackList {\r\n    // 상태 변수 선언\r\n\r\n    mapping (address => int8) public blackList; // 블랙리스트\r\n    address[] internal blackListKey;\r\n     \r\n    // 이벤트 알림\r\n    event Blacklisted(address indexed target);\r\n    event DeleteFromBlacklist(address indexed target);\r\n    \r\n    \r\n    constructor () public{}\r\n    \r\n    // 주소를 블랙리스트에 등록\r\n    function blacklisting(address _addr) public  {\r\n        blackList[_addr] = 1;\r\n        blackListKey.push(_addr);\r\n        \r\n        emit Blacklisted(_addr);\r\n    }\r\n \r\n    // 주소를 블랙리스트에서 해제\r\n    function deleteFromBlacklist(address _addr) public  {\r\n        \r\n        blackList[_addr] = -1;\r\n        for(uint i = 0; i <blackListKey.length; i++ ){\r\n            if(blackListKey[i] == _addr){\r\n                delete blackListKey[i];\r\n                break;\r\n            }\r\n        }\r\n        emit DeleteFromBlacklist(_addr);\r\n    }\r\n    // 블랙리스트 조회\r\n    function getBlacklist() view public  returns (address[] memory) {\r\n\r\n        return blackListKey;\r\n        \r\n    }\r\n    \r\n    // 블랙리스트 체크\r\n    // function blackListCheck(address _to, uint256 _value) private returns (bool){\r\n    \r\n    //     if (blackList[msg.sender] > 0) {\r\n    //         emit RejectedPaymentFromBlacklistedAddr(msg.sender, _to, _value);\r\n    //         return false;\r\n    //     } else if (blackList[_to] > 0) {\r\n    //         emit RejectedPaymentToBlacklistedAddr(msg.sender, _to, _value);\r\n    //         return false;\r\n    //     }\r\n    //     return true;\r\n    // }\r\n    \r\n}\r\n\r\n\r\n",
  "sourcePath": "D:\\BlockChainDApp\\Store_Dapp\\contracts\\BlackList.sol",
  "compiler": {
    "name": "solc",
    "version": "0.4.24+commit.e67f0147.Emscripten.clang"
  },
  "schemaVersion": "3.0.23",
  "updatedAt": "2020-03-10T07:47:31.538Z",
  "networkType": "ethereum",
  "devdoc": {
    "methods": {}
  },
  "userdoc": {
    "methods": {}
  }
}