{
  "contractName": "Personal",
  "abi": [
    {
      "inputs": [],
      "payable": false,
      "stateMutability": "nonpayable",
      "type": "constructor"
    },
    {
      "constant": false,
      "inputs": [],
      "name": "register",
      "outputs": [
        {
          "name": "success",
          "type": "string"
        }
      ],
      "payable": false,
      "stateMutability": "nonpayable",
      "type": "function"
    },
    {
      "constant": true,
      "inputs": [],
      "name": "getMemberInfo",
      "outputs": [
        {
          "name": "addr",
          "type": "address"
        }
      ],
      "payable": false,
      "stateMutability": "view",
      "type": "function"
    }
  ],
  "bytecode": "0x608060405234801561001057600080fd5b50336000803373ffffffffffffffffffffffffffffffffffffffff1673ffffffffffffffffffffffffffffffffffffffff16815260200190815260200160002060000160006101000a81548173ffffffffffffffffffffffffffffffffffffffff021916908373ffffffffffffffffffffffffffffffffffffffff160217905550610326806100a06000396000f30060806040526004361061004c576000357c0100000000000000000000000000000000000000000000000000000000900463ffffffff1680631aa3a0081461005157806360104e11146100e1575b600080fd5b34801561005d57600080fd5b50610066610138565b6040518080602001828103825283818151815260200191508051906020019080838360005b838110156100a657808201518184015260208101905061008b565b50505050905090810190601f1680156100d35780820380516001836020036101000a031916815260200191505b509250505060405180910390f35b3480156100ed57600080fd5b506100f6610291565b604051808273ffffffffffffffffffffffffffffffffffffffff1673ffffffffffffffffffffffffffffffffffffffff16815260200191505060405180910390f35b6060600073ffffffffffffffffffffffffffffffffffffffff166000803373ffffffffffffffffffffffffffffffffffffffff1673ffffffffffffffffffffffffffffffffffffffff16815260200190815260200160002060000160009054906101000a900473ffffffffffffffffffffffffffffffffffffffff1673ffffffffffffffffffffffffffffffffffffffff161415156101d657600080fd5b336000803373ffffffffffffffffffffffffffffffffffffffff1673ffffffffffffffffffffffffffffffffffffffff16815260200190815260200160002060000160006101000a81548173ffffffffffffffffffffffffffffffffffffffff021916908373ffffffffffffffffffffffffffffffffffffffff1602179055506040805190810160405280600781526020017f7375636365737300000000000000000000000000000000000000000000000000815250905090565b60008060003373ffffffffffffffffffffffffffffffffffffffff1673ffffffffffffffffffffffffffffffffffffffff16815260200190815260200160002060000160009054906101000a900473ffffffffffffffffffffffffffffffffffffffff169050905600a165627a7a723058208bbf86960b88687300ad22c406bf5c64b55a3e82c8925d97e6d32a4cd0f5d87a0029",
  "source": "pragma solidity 0.4.24;\r\n\r\ncontract Personal {\r\n    struct Person{\r\n        address account;\r\n        uint tokens;\r\n    }\r\n    mapping(address=>Person) People;\r\n\r\n    constructor() public{\r\n        People[msg.sender].account=msg.sender;\r\n    }\r\n\r\n    function register() public returns(string success) {\r\n        require(People[msg.sender].account == address(0));\r\n        // if(People[msg.sender].account!=address(0)) return \"fail\"; \r\n        // else {\r\n            People[msg.sender].account= msg.sender;\r\n            return \"success\";\r\n        // }\r\n    }\r\n    function getMemberInfo() public view returns(address addr){\r\n        return People[msg.sender].account;\r\n    }\r\n}\r\n",
  "sourcePath": "D:\\BlockChainDApp\\Store_Dapp\\contracts\\Personal.sol",
  "compiler": {
    "name": "solc",
    "version": "0.4.24+commit.e67f0147.Emscripten.clang"
  },
  "schemaVersion": "3.0.23",
  "updatedAt": "2020-03-04T08:22:23.720Z",
  "networkType": "ethereum",
  "devdoc": {
    "methods": {}
  },
  "userdoc": {
    "methods": {}
  }
}