{
  "contractName": "Stuff",
  "abi": [
    {
      "constant": true,
      "inputs": [
        {
          "name": "",
          "type": "uint256"
        }
      ],
      "name": "stuffArray",
      "outputs": [
        {
          "name": "code",
          "type": "uint256"
        },
        {
          "name": "cost",
          "type": "uint256"
        },
        {
          "name": "name",
          "type": "string"
        },
        {
          "name": "imgsrc",
          "type": "string"
        }
      ],
      "payable": false,
      "stateMutability": "view",
      "type": "function"
    },
    {
      "constant": true,
      "inputs": [],
      "name": "num",
      "outputs": [
        {
          "name": "",
          "type": "uint256"
        }
      ],
      "payable": false,
      "stateMutability": "view",
      "type": "function"
    },
    {
      "constant": true,
      "inputs": [
        {
          "name": "",
          "type": "address"
        },
        {
          "name": "",
          "type": "uint256"
        }
      ],
      "name": "personalitems",
      "outputs": [
        {
          "name": "code",
          "type": "uint256"
        },
        {
          "name": "cost",
          "type": "uint256"
        },
        {
          "name": "name",
          "type": "string"
        },
        {
          "name": "imgsrc",
          "type": "string"
        }
      ],
      "payable": false,
      "stateMutability": "view",
      "type": "function"
    },
    {
      "inputs": [],
      "payable": false,
      "stateMutability": "nonpayable",
      "type": "constructor"
    },
    {
      "anonymous": false,
      "inputs": [
        {
          "indexed": false,
          "name": "code",
          "type": "uint256"
        },
        {
          "indexed": false,
          "name": "name",
          "type": "string"
        },
        {
          "indexed": false,
          "name": "imgsrc",
          "type": "string"
        },
        {
          "indexed": false,
          "name": "cost",
          "type": "uint256"
        }
      ],
      "name": "StuffInfo",
      "type": "event"
    },
    {
      "constant": false,
      "inputs": [
        {
          "name": "_buyer",
          "type": "address"
        },
        {
          "name": "_stuffCode",
          "type": "uint256"
        },
        {
          "name": "_name",
          "type": "string"
        },
        {
          "name": "_src",
          "type": "string"
        },
        {
          "name": "_cost",
          "type": "uint256"
        }
      ],
      "name": "stuffbuy",
      "outputs": [
        {
          "name": "success",
          "type": "bool"
        }
      ],
      "payable": false,
      "stateMutability": "nonpayable",
      "type": "function"
    },
    {
      "constant": false,
      "inputs": [
        {
          "name": "_name",
          "type": "string"
        },
        {
          "name": "_imgsrc",
          "type": "string"
        },
        {
          "name": "_cost",
          "type": "uint256"
        }
      ],
      "name": "registerStuff",
      "outputs": [
        {
          "name": "success",
          "type": "bool"
        }
      ],
      "payable": false,
      "stateMutability": "nonpayable",
      "type": "function"
    },
    {
      "constant": false,
      "inputs": [
        {
          "name": "buyer",
          "type": "address"
        },
        {
          "name": "index",
          "type": "uint256"
        }
      ],
      "name": "deleteMyStuff",
      "outputs": [
        {
          "name": "success",
          "type": "bool"
        }
      ],
      "payable": false,
      "stateMutability": "nonpayable",
      "type": "function"
    },
    {
      "constant": false,
      "inputs": [
        {
          "name": "_code",
          "type": "uint256"
        }
      ],
      "name": "deleteStuff",
      "outputs": [
        {
          "name": "success",
          "type": "bool"
        }
      ],
      "payable": false,
      "stateMutability": "nonpayable",
      "type": "function"
    },
    {
      "constant": true,
      "inputs": [],
      "name": "getStuff",
      "outputs": [
        {
          "name": "",
          "type": "string"
        }
      ],
      "payable": false,
      "stateMutability": "view",
      "type": "function"
    },
    {
      "constant": true,
      "inputs": [
        {
          "name": "buyer",
          "type": "address"
        }
      ],
      "name": "getMyStuff",
      "outputs": [
        {
          "name": "",
          "type": "string"
        }
      ],
      "payable": false,
      "stateMutability": "view",
      "type": "function"
    },
    {
      "constant": true,
      "inputs": [],
      "name": "getnum",
      "outputs": [
        {
          "name": "",
          "type": "uint256"
        }
      ],
      "payable": false,
      "stateMutability": "view",
      "type": "function"
    }
  ],
  "bytecode": "0x608060405234801561001057600080fd5b506009600281905550611e23806100286000396000f3006080604052600436106100a4576000357c0100000000000000000000000000000000000000000000000000000000900463ffffffff16806329690ace146100a95780632bda5c5c1461017a578063315d69fd146101bf57806335eb04d01461027b5780634e70b1dc1461039b5780637d368873146103c657806387405758146103f15780639b9bb01b14610481578063db8285d8146104e6578063f9c1a9ba146105e1575b600080fd5b3480156100b557600080fd5b50610160600480360381019080803590602001908201803590602001908080601f0160208091040260200160405190810160405280939291908181526020018383808284378201915050505050509192919290803590602001908201803590602001908080601f016020809104026020016040519081016040528093929190818152602001838380828437820191505050505050919291929080359060200190929190505050610721565b604051808215151515815260200191505060405180910390f35b34801561018657600080fd5b506101a5600480360381019080803590602001909291905050506107c3565b604051808215151515815260200191505060405180910390f35b3480156101cb57600080fd5b50610200600480360381019080803573ffffffffffffffffffffffffffffffffffffffff169060200190929190505050610824565b6040518080602001828103825283818151815260200191508051906020019080838360005b83811015610240578082015181840152602081019050610225565b50505050905090810190601f16801561026d5780820380516001836020036101000a031916815260200191505b509250505060405180910390f35b34801561028757600080fd5b506102a660048036038101908080359060200190929190505050610f92565b604051808581526020018481526020018060200180602001838103835285818151815260200191508051906020019080838360005b838110156102f65780820151818401526020810190506102db565b50505050905090810190601f1680156103235780820380516001836020036101000a031916815260200191505b50838103825284818151815260200191508051906020019080838360005b8381101561035c578082015181840152602081019050610341565b50505050905090810190601f1680156103895780820380516001836020036101000a031916815260200191505b50965050505050505060405180910390f35b3480156103a757600080fd5b506103b06110f2565b6040518082815260200191505060405180910390f35b3480156103d257600080fd5b506103db6110f8565b6040518082815260200191505060405180910390f35b3480156103fd57600080fd5b50610406611102565b6040518080602001828103825283818151815260200191508051906020019080838360005b8381101561044657808201518184015260208101905061042b565b50505050905090810190601f1680156104735780820380516001836020036101000a031916815260200191505b509250505060405180910390f35b34801561048d57600080fd5b506104cc600480360381019080803573ffffffffffffffffffffffffffffffffffffffff16906020019092919080359060200190929190505050611795565b604051808215151515815260200191505060405180910390f35b3480156104f257600080fd5b506105c7600480360381019080803573ffffffffffffffffffffffffffffffffffffffff16906020019092919080359060200190929190803590602001908201803590602001908080601f0160208091040260200160405190810160405280939291908181526020018383808284378201915050505050509192919290803590602001908201803590602001908080601f01602080910402602001604051908101604052809392919081815260200183838082843782019150505050505091929192908035906020019092919050505061182e565b604051808215151515815260200191505060405180910390f35b3480156105ed57600080fd5b5061062c600480360381019080803573ffffffffffffffffffffffffffffffffffffffff169060200190929190803590602001909291905050506119b0565b604051808581526020018481526020018060200180602001838103835285818151815260200191508051906020019080838360005b8381101561067c578082015181840152602081019050610661565b50505050905090810190601f1680156106a95780820380516001836020036101000a031916815260200191505b50838103825284818151815260200191508051906020019080838360005b838110156106e25780820151818401526020810190506106c7565b50505050905090810190601f16801561070f5780820380516001836020036101000a031916815260200191505b50965050505050505060405180910390f35b600060806040519081016040528060025481526020018381526020018581526020018481525060008060025481526020019081526020016000206000820151816000015560208201518160010155604082015181600201908051906020019061078b929190611c83565b5060608201518160030190805190602001906107a8929190611c83565b50905050600160025401600281905550600190509392505050565b600080600083815260200190815260200160002060008082016000905560018201600090556002820160006107f89190611d03565b6003820160006108089190611d03565b5050600160026000828254039250508190555060019050919050565b60608060606000606080606080606080600160008c73ffffffffffffffffffffffffffffffffffffffff1673ffffffffffffffffffffffffffffffffffffffff168152602001908152602001600020805480602002602001604051908101604052809291908181526020016000905b82821015610a1e5783829060005260206000209060040201608060405190810160405290816000820154815260200160018201548152602001600282018054600181600116156101000203166002900480601f0160208091040260200160405190810160405280929190818152602001828054600181600116156101000203166002900480156109645780601f1061093957610100808354040283529160200191610964565b820191906000526020600020905b81548152906001019060200180831161094757829003601f168201915b50505050508152602001600382018054600181600116156101000203166002900480601f016020809104026020016040519081016040528092919081815260200182805460018160011615610100020316600290048015610a065780601f106109db57610100808354040283529160200191610a06565b820191906000526020600020905b8154815290600101906020018083116109e957829003601f168201915b50505050508152505081526020019060010190610893565b505050509850600096505b8851871015610f8157610a568988815181101515610a4357fe5b9060200190602002015160000151611b2c565b9550610a7c8988815181101515610a6957fe5b9060200190602002015160200151611b2c565b94508887815181101515610a8c57fe5b906020019060200201516060015193508887815181101515610aaa57fe5b90602001906020020151604001519250610ac387611b2c565b91506040516020018060000190506040516020818303038152906040526040518082805190602001908083835b602083101515610b155780518252602082019150602081019050602083039250610af0565b6001836020036101000a038019825116818451168082178552505050505050905001915050604051809103902060001916836040516020018082805190602001908083835b602083101515610b7f5780518252602082019150602081019050602083039250610b5a565b6001836020036101000a0380198251168184511680821785525050505050509050019150506040516020818303038152906040526040518082805190602001908083835b602083101515610be85780518252602082019150602081019050602083039250610bc3565b6001836020036101000a0380198251168184511680821785525050505050509050019150506040518091039020600019161415610c2457610f74565b85858585856040516020018086805190602001908083835b602083101515610c615780518252602082019150602081019050602083039250610c3c565b6001836020036101000a038019825116818451168082178552505050505050905001807f2c0000000000000000000000000000000000000000000000000000000000000081525060010185805190602001908083835b602083101515610cdc5780518252602082019150602081019050602083039250610cb7565b6001836020036101000a038019825116818451168082178552505050505050905001807f2c0000000000000000000000000000000000000000000000000000000000000081525060010184805190602001908083835b602083101515610d575780518252602082019150602081019050602083039250610d32565b6001836020036101000a038019825116818451168082178552505050505050905001807f2c0000000000000000000000000000000000000000000000000000000000000081525060010183805190602001908083835b602083101515610dd25780518252602082019150602081019050602083039250610dad565b6001836020036101000a038019825116818451168082178552505050505050905001807f2c0000000000000000000000000000000000000000000000000000000000000081525060010182805190602001908083835b602083101515610e4d5780518252602082019150602081019050602083039250610e28565b6001836020036101000a03801982511681845116808217855250505050505090500195505050505050604051602081830303815290604052905087816040516020018083805190602001908083835b602083101515610ec15780518252602082019150602081019050602083039250610e9c565b6001836020036101000a03801982511681845116808217855250505050505090500182805190602001908083835b602083101515610f145780518252602082019150602081019050602083039250610eef565b6001836020036101000a038019825116818451168082178552505050505050905001807f2f2f0000000000000000000000000000000000000000000000000000000000008152506002019250505060405160208183030381529060405297505b8680600101975050610a29565b879950505050505050505050919050565b6000602052806000526040600020600091509050806000015490806001015490806002018054600181600116156101000203166002900480601f01602080910402602001604051908101604052809291908181526020018280546001816001161561010002031660029004801561104a5780601f1061101f5761010080835404028352916020019161104a565b820191906000526020600020905b81548152906001019060200180831161102d57829003601f168201915b505050505090806003018054600181600116156101000203166002900480601f0160208091040260200160405190810160405280929190818152602001828054600181600116156101000203166002900480156110e85780601f106110bd576101008083540402835291602001916110e8565b820191906000526020600020905b8154815290600101906020018083116110cb57829003601f168201915b5050505050905084565b60025481565b6000600254905090565b6060806000606080606080606080600996505b600254871115156117875761113e60008089815260200190815260200160002060000154611b2c565b955061115e60008089815260200190815260200160002060010154611b2c565b94506000808881526020019081526020016000206003018054600181600116156101000203166002900480601f0160208091040260200160405190810160405280929190818152602001828054600181600116156101000203166002900480156112095780601f106111de57610100808354040283529160200191611209565b820191906000526020600020905b8154815290600101906020018083116111ec57829003601f168201915b505050505093506000808881526020019081526020016000206002018054600181600116156101000203166002900480601f0160208091040260200160405190810160405280929190818152602001828054600181600116156101000203166002900480156112b95780601f1061128e576101008083540402835291602001916112b9565b820191906000526020600020905b81548152906001019060200180831161129c57829003601f168201915b505050505092506112c987611b2c565b91506040516020018060000190506040516020818303038152906040526040518082805190602001908083835b60208310151561131b57805182526020820191506020810190506020830392506112f6565b6001836020036101000a038019825116818451168082178552505050505050905001915050604051809103902060001916836040516020018082805190602001908083835b6020831015156113855780518252602082019150602081019050602083039250611360565b6001836020036101000a0380198251168184511680821785525050505050509050019150506040516020818303038152906040526040518082805190602001908083835b6020831015156113ee57805182526020820191506020810190506020830392506113c9565b6001836020036101000a038019825116818451168082178552505050505050905001915050604051809103902060001916141561142a5761177a565b85858585856040516020018086805190602001908083835b6020831015156114675780518252602082019150602081019050602083039250611442565b6001836020036101000a038019825116818451168082178552505050505050905001807f2c0000000000000000000000000000000000000000000000000000000000000081525060010185805190602001908083835b6020831015156114e257805182526020820191506020810190506020830392506114bd565b6001836020036101000a038019825116818451168082178552505050505050905001807f2c0000000000000000000000000000000000000000000000000000000000000081525060010184805190602001908083835b60208310151561155d5780518252602082019150602081019050602083039250611538565b6001836020036101000a038019825116818451168082178552505050505050905001807f2c0000000000000000000000000000000000000000000000000000000000000081525060010183805190602001908083835b6020831015156115d857805182526020820191506020810190506020830392506115b3565b6001836020036101000a038019825116818451168082178552505050505050905001807f2c0000000000000000000000000000000000000000000000000000000000000081525060010182805190602001908083835b602083101515611653578051825260208201915060208101905060208303925061162e565b6001836020036101000a03801982511681845116808217855250505050505090500195505050505050604051602081830303815290604052905087816040516020018083805190602001908083835b6020831015156116c757805182526020820191506020810190506020830392506116a2565b6001836020036101000a03801982511681845116808217855250505050505090500182805190602001908083835b60208310151561171a57805182526020820191506020810190506020830392506116f5565b6001836020036101000a038019825116818451168082178552505050505050905001807f2f2f0000000000000000000000000000000000000000000000000000000000008152506002019250505060405160208183030381529060405297505b8680600101975050611115565b879850505050505050505090565b6000600160008473ffffffffffffffffffffffffffffffffffffffff1673ffffffffffffffffffffffffffffffffffffffff168152602001908152602001600020828154811015156117e357fe5b906000526020600020906004020160008082016000905560018201600090556002820160006118129190611d03565b6003820160006118229190611d03565b50506001905092915050565b60006008851115156118c057608060405190810160405280868152602001838152602001858152602001848152506000808781526020019081526020016000206000820151816000015560208201518160010155604082015181600201908051906020019061189e929190611c83565b5060608201518160030190805190602001906118bb929190611c83565b509050505b600160008773ffffffffffffffffffffffffffffffffffffffff1673ffffffffffffffffffffffffffffffffffffffff16815260200190815260200160002060008087815260200190815260200160002090806001815401808255809150509060018203906000526020600020906004020160009091929091909150600082015481600001556001820154816001015560028201816002019080546001816001161561010002031660029004611977929190611d4b565b506003820181600301908054600181600116156101000203166002900461199f929190611d4b565b505050506001905095945050505050565b6001602052816000526040600020818154811015156119cb57fe5b906000526020600020906004020160009150915050806000015490806001015490806002018054600181600116156101000203166002900480601f016020809104026020016040519081016040528092919081815260200182805460018160011615610100020316600290048015611a845780601f10611a5957610100808354040283529160200191611a84565b820191906000526020600020905b815481529060010190602001808311611a6757829003601f168201915b505050505090806003018054600181600116156101000203166002900480601f016020809104026020016040519081016040528092919081815260200182805460018160011615610100020316600290048015611b225780601f10611af757610100808354040283529160200191611b22565b820191906000526020600020905b815481529060010190602001808311611b0557829003601f168201915b5050505050905084565b60606000806060600080861415611b7a576040805190810160405280600181526020017f30000000000000000000000000000000000000000000000000000000000000008152509450611c7a565b8593505b600084141515611ba4578280600101935050600a84811515611b9c57fe5b049350611b7e565b826040519080825280601f01601f191660200182016040528015611bd75781602001602082028038833980820191505090505b5091506001830390505b600086141515611c7657600a86811515611bf757fe5b066030017f010000000000000000000000000000000000000000000000000000000000000002828280600190039350815181101515611c3257fe5b9060200101907effffffffffffffffffffffffffffffffffffffffffffffffffffffffffffff1916908160001a905350600a86811515611c6e57fe5b049550611be1565b8194505b50505050919050565b828054600181600116156101000203166002900490600052602060002090601f016020900481019282601f10611cc457805160ff1916838001178555611cf2565b82800160010185558215611cf2579182015b82811115611cf1578251825591602001919060010190611cd6565b5b509050611cff9190611dd2565b5090565b50805460018160011615610100020316600290046000825580601f10611d295750611d48565b601f016020900490600052602060002090810190611d479190611dd2565b5b50565b828054600181600116156101000203166002900490600052602060002090601f016020900481019282601f10611d845780548555611dc1565b82800160010185558215611dc157600052602060002091601f016020900482015b82811115611dc0578254825591600101919060010190611da5565b5b509050611dce9190611dd2565b5090565b611df491905b80821115611df0576000816000905550600101611dd8565b5090565b905600a165627a7a7230582069fc2fdb99f088ea8a5996ee81c7b34408fd80c5c1139f0a2c14284b219298630029",
  "source": "pragma solidity  >=0.4.24 <0.7.0;\r\n\r\ncontract Stuff {\r\n    struct stuffInfo{\r\n        uint code;\r\n        uint cost;\r\n        string name;\r\n        string imgsrc;\r\n        \r\n    }\r\n    mapping(uint=> stuffInfo) public stuffArray;\r\n    //mapping(address=> stuffInfo[]) public personal;\r\n    mapping(address=> stuffInfo[]) public personalitems;\r\n    uint public num;\r\n    // uint public subnum;\r\n\r\n    event  StuffInfo(uint code, string name,string imgsrc, uint cost);\r\n    constructor() public {\r\n        num = 9;\r\n    }\r\n\r\n    // Adopting a itemss\r\n    function stuffbuy(address _buyer, uint _stuffCode, string memory _name, string memory _src, uint _cost) public returns(bool success ) {\r\n        \r\n\r\n        if(_stuffCode <=8){ \r\n            stuffArray[_stuffCode]=stuffInfo(_stuffCode,_cost,_name,_src);\r\n        }        \r\n        \r\n       \r\n        // stuffArray[_stuffCode] = stuff;\r\n\r\n        personalitems[_buyer].push(stuffArray[_stuffCode]);\r\n        \r\n        // emit StuffInfo(stuffArray[_stuffCode].code, stuffArray[_stuffCode].name,stuffArray[_stuffCode].imgsrc, stuffArray[_stuffCode].cost);\r\n        return true;\r\n    }\r\n    // owner\r\n    function registerStuff(string _name, string _imgsrc, uint _cost) public returns(bool success){\r\n        \r\n        \r\n        stuffArray[num]=stuffInfo(num,_cost,_name,_imgsrc);\r\n        num = num + 1;\r\n\r\n        return true;\r\n    }\r\n    function deleteMyStuff(address buyer, uint index) public returns(bool success) {\r\n\r\n        delete personalitems[buyer][index];\r\n        \r\n        return true;\r\n    }    \r\n    function deleteStuff(uint _code) public returns(bool success) {\r\n\r\n        delete stuffArray[_code];\r\n        num -= 1;\r\n        return true;\r\n    }\r\n    \r\n    function getStuff() public view returns(string memory){\r\n        string memory citems;\r\n        \r\n        for( uint i=9; i <= num; i++){\r\n            string memory stuffCode = uint2str(stuffArray[i].code);\r\n            string memory cost = uint2str(stuffArray[i].cost);\r\n            string memory imgsrc = stuffArray[i].imgsrc;\r\n            string memory name = stuffArray[i].name;\r\n            string memory index = uint2str(i);\r\n            if(keccak256(abi.encodePacked(name)) == keccak256(abi.encodePacked(\"\"))){\r\n                continue;\r\n            }\r\n            string memory val = string(abi.encodePacked(stuffCode, \",\", cost, \",\", imgsrc, \",\", name, \",\", index));\r\n            \r\n            citems = string(abi.encodePacked(citems, val, \"//\"));\r\n        }\r\n        return citems;\r\n    } \r\n    function getMyStuff(address buyer) public view returns(string memory){\r\n        stuffInfo[] memory items = personalitems[buyer];\r\n        string memory citems;\r\n        \r\n        for( uint i=0; i<items.length; i++){\r\n            string memory stuffCode = uint2str(items[i].code);\r\n            string memory cost = uint2str(items[i].cost);\r\n            string memory imgsrc = items[i].imgsrc;\r\n            string memory name = items[i].name;\r\n            string memory index = uint2str(i);\r\n            if(keccak256(abi.encodePacked(name)) == keccak256(abi.encodePacked(\"\"))){\r\n                continue;\r\n            }\r\n            string memory val = string(abi.encodePacked(stuffCode, \",\", cost, \",\", imgsrc, \",\", name, \",\", index));\r\n            \r\n            citems = string(abi.encodePacked(citems, val, \"//\"));\r\n        }\r\n        return citems;\r\n    }    \r\n    function getnum() public view returns( uint){\r\n        return num;\r\n    }\r\n    \r\n    // function getPersonal(address addr)public view returns(uint){\r\n    //     return personal[addr].length;\r\n    // }\r\n    \r\n    // function getPersonalStuff(address addr, uint id) public view returns(uint, string , string , uint ,address , bool ){\r\n    //     stuffInfo memory tmp=personal[addr][id];\r\n    //     return (tmp.code,tmp.name, tmp.description,tmp.cost,tmp.owner,tmp.isBuy);\r\n    // }\r\n    function uint2str(uint i) internal pure returns (string){\r\n        if (i == 0) return \"0\";\r\n        uint j = i;\r\n        uint length;\r\n        while (j != 0){\r\n            length++;\r\n            j /= 10;\r\n        }\r\n        bytes memory bstr = new bytes(length);\r\n        uint k = length - 1;\r\n        while (i != 0){\r\n            bstr[k--] = byte(48 + i % 10);\r\n            i /= 10;\r\n        }\r\n        return string(bstr);\r\n    }\r\n\r\n}",
  "sourcePath": "D:\\BlockChainDApp\\Store_Dapp\\contracts\\Stuff.sol",
  "compiler": {
    "name": "solc",
    "version": "0.4.24+commit.e67f0147.Emscripten.clang"
  },
  "schemaVersion": "3.0.23",
  "updatedAt": "2020-03-15T12:34:06.439Z",
  "networkType": "ethereum",
  "devdoc": {
    "methods": {}
  },
  "userdoc": {
    "methods": {}
  }
}