{
  "contractName": "Stuff",
  "abi": [
    {
      "constant": true,
      "inputs": [
        {
          "name": "",
          "type": "uint256"
        }
      ],
      "name": "stuffArray",
      "outputs": [
        {
          "name": "code",
          "type": "uint256"
        },
        {
          "name": "cost",
          "type": "uint256"
        },
        {
          "name": "precode",
          "type": "uint256"
        },
        {
          "name": "name",
          "type": "string"
        },
        {
          "name": "imgsrc",
          "type": "string"
        }
      ],
      "payable": false,
      "stateMutability": "view",
      "type": "function"
    },
    {
      "constant": true,
      "inputs": [],
      "name": "num",
      "outputs": [
        {
          "name": "",
          "type": "uint256"
        }
      ],
      "payable": false,
      "stateMutability": "view",
      "type": "function"
    },
    {
      "constant": false,
      "inputs": [],
      "name": "acceptOwnership",
      "outputs": [],
      "payable": false,
      "stateMutability": "nonpayable",
      "type": "function"
    },
    {
      "constant": true,
      "inputs": [],
      "name": "owner",
      "outputs": [
        {
          "name": "",
          "type": "address"
        }
      ],
      "payable": false,
      "stateMutability": "view",
      "type": "function"
    },
    {
      "constant": true,
      "inputs": [],
      "name": "newOwner",
      "outputs": [
        {
          "name": "",
          "type": "address"
        }
      ],
      "payable": false,
      "stateMutability": "view",
      "type": "function"
    },
    {
      "constant": false,
      "inputs": [
        {
          "name": "_newOwner",
          "type": "address"
        }
      ],
      "name": "transferOwnership",
      "outputs": [],
      "payable": false,
      "stateMutability": "nonpayable",
      "type": "function"
    },
    {
      "constant": true,
      "inputs": [
        {
          "name": "",
          "type": "address"
        },
        {
          "name": "",
          "type": "uint256"
        }
      ],
      "name": "personalitems",
      "outputs": [
        {
          "name": "code",
          "type": "uint256"
        },
        {
          "name": "cost",
          "type": "uint256"
        },
        {
          "name": "precode",
          "type": "uint256"
        },
        {
          "name": "name",
          "type": "string"
        },
        {
          "name": "imgsrc",
          "type": "string"
        }
      ],
      "payable": false,
      "stateMutability": "view",
      "type": "function"
    },
    {
      "inputs": [],
      "payable": false,
      "stateMutability": "nonpayable",
      "type": "constructor"
    },
    {
      "anonymous": false,
      "inputs": [
        {
          "indexed": false,
          "name": "code",
          "type": "uint256"
        },
        {
          "indexed": false,
          "name": "name",
          "type": "string"
        },
        {
          "indexed": false,
          "name": "imgsrc",
          "type": "string"
        },
        {
          "indexed": false,
          "name": "cost",
          "type": "uint256"
        }
      ],
      "name": "StuffInfo",
      "type": "event"
    },
    {
      "anonymous": false,
      "inputs": [
        {
          "indexed": true,
          "name": "_from",
          "type": "address"
        },
        {
          "indexed": true,
          "name": "_to",
          "type": "address"
        }
      ],
      "name": "OwnershipTransferred",
      "type": "event"
    },
    {
      "constant": false,
      "inputs": [
        {
          "name": "_buyer",
          "type": "address"
        },
        {
          "name": "_stuffCode",
          "type": "uint256"
        },
        {
          "name": "_name",
          "type": "string"
        },
        {
          "name": "_src",
          "type": "string"
        },
        {
          "name": "_cost",
          "type": "uint256"
        }
      ],
      "name": "stuffbuy",
      "outputs": [
        {
          "name": "success",
          "type": "bool"
        }
      ],
      "payable": false,
      "stateMutability": "nonpayable",
      "type": "function"
    },
    {
      "constant": false,
      "inputs": [
        {
          "name": "_name",
          "type": "string"
        },
        {
          "name": "_imgsrc",
          "type": "string"
        },
        {
          "name": "_cost",
          "type": "uint256"
        }
      ],
      "name": "registerStuff",
      "outputs": [
        {
          "name": "success",
          "type": "bool"
        }
      ],
      "payable": false,
      "stateMutability": "nonpayable",
      "type": "function"
    },
    {
      "constant": false,
      "inputs": [
        {
          "name": "buyer",
          "type": "address"
        },
        {
          "name": "index",
          "type": "uint256"
        }
      ],
      "name": "deleteMyStuff",
      "outputs": [
        {
          "name": "success",
          "type": "bool"
        }
      ],
      "payable": false,
      "stateMutability": "nonpayable",
      "type": "function"
    },
    {
      "constant": false,
      "inputs": [
        {
          "name": "_code",
          "type": "uint256"
        }
      ],
      "name": "deleteStuff",
      "outputs": [
        {
          "name": "success",
          "type": "bool"
        }
      ],
      "payable": false,
      "stateMutability": "nonpayable",
      "type": "function"
    },
    {
      "constant": true,
      "inputs": [],
      "name": "getStuff",
      "outputs": [
        {
          "name": "",
          "type": "string"
        }
      ],
      "payable": false,
      "stateMutability": "view",
      "type": "function"
    },
    {
      "constant": true,
      "inputs": [
        {
          "name": "buyer",
          "type": "address"
        }
      ],
      "name": "getMyStuff",
      "outputs": [
        {
          "name": "",
          "type": "string"
        }
      ],
      "payable": false,
      "stateMutability": "view",
      "type": "function"
    },
    {
      "constant": true,
      "inputs": [],
      "name": "getnum",
      "outputs": [
        {
          "name": "",
          "type": "uint256"
        }
      ],
      "payable": false,
      "stateMutability": "view",
      "type": "function"
    }
  ],
  "bytecode": "0x608060405234801561001057600080fd5b50336000806101000a81548173ffffffffffffffffffffffffffffffffffffffff021916908373ffffffffffffffffffffffffffffffffffffffff1602179055506001600481905550612466806100686000396000f3006080604052600436106100d0576000357c0100000000000000000000000000000000000000000000000000000000900463ffffffff16806329690ace146100d55780632bda5c5c146101a6578063315d69fd146101eb57806335eb04d0146102a75780634e70b1dc146103ce57806379ba5097146103f95780637d36887314610410578063874057581461043b5780638da5cb5b146104cb5780639b9bb01b14610522578063d4ee1d9014610587578063db8285d8146105de578063f2fde38b146106d9578063f9c1a9ba1461071c575b600080fd5b3480156100e157600080fd5b5061018c600480360381019080803590602001908201803590602001908080601f0160208091040260200160405190810160405280939291908181526020018383808284378201915050505050509192919290803590602001908201803590602001908080601f016020809104026020016040519081016040528093929190818152602001838380828437820191505050505050919291929080359060200190929190505050610863565b604051808215151515815260200191505060405180910390f35b3480156101b257600080fd5b506101d160048036038101908080359060200190929190505050610918565b604051808215151515815260200191505060405180910390f35b3480156101f757600080fd5b5061022c600480360381019080803573ffffffffffffffffffffffffffffffffffffffff169060200190929190505050610adf565b6040518080602001828103825283818151815260200191508051906020019080838360005b8381101561026c578082015181840152602081019050610251565b50505050905090810190601f1680156102995780820380516001836020036101000a031916815260200191505b509250505060405180910390f35b3480156102b357600080fd5b506102d2600480360381019080803590602001909291905050506112fd565b604051808681526020018581526020018481526020018060200180602001838103835285818151815260200191508051906020019080838360005b8381101561032857808201518184015260208101905061030d565b50505050905090810190601f1680156103555780820380516001836020036101000a031916815260200191505b50838103825284818151815260200191508051906020019080838360005b8381101561038e578082015181840152602081019050610373565b50505050905090810190601f1680156103bb5780820380516001836020036101000a031916815260200191505b5097505050505050505060405180910390f35b3480156103da57600080fd5b506103e3611463565b6040518082815260200191505060405180910390f35b34801561040557600080fd5b5061040e611469565b005b34801561041c57600080fd5b50610425611608565b6040518082815260200191505060405180910390f35b34801561044757600080fd5b50610450611612565b6040518080602001828103825283818151815260200191508051906020019080838360005b83811015610490578082015181840152602081019050610475565b50505050905090810190601f1680156104bd5780820380516001836020036101000a031916815260200191505b509250505060405180910390f35b3480156104d757600080fd5b506104e0611d4a565b604051808273ffffffffffffffffffffffffffffffffffffffff1673ffffffffffffffffffffffffffffffffffffffff16815260200191505060405180910390f35b34801561052e57600080fd5b5061056d600480360381019080803573ffffffffffffffffffffffffffffffffffffffff16906020019092919080359060200190929190505050611d6f565b604051808215151515815260200191505060405180910390f35b34801561059357600080fd5b5061059c611e10565b604051808273ffffffffffffffffffffffffffffffffffffffff1673ffffffffffffffffffffffffffffffffffffffff16815260200191505060405180910390f35b3480156105ea57600080fd5b506106bf600480360381019080803573ffffffffffffffffffffffffffffffffffffffff16906020019092919080359060200190929190803590602001908201803590602001908080601f0160208091040260200160405190810160405280939291908181526020018383808284378201915050505050509192919290803590602001908201803590602001908080601f016020809104026020016040519081016040528093929190818152602001838380828437820191505050505050919291929080359060200190929190505050611e36565b604051808215151515815260200191505060405180910390f35b3480156106e557600080fd5b5061071a600480360381019080803573ffffffffffffffffffffffffffffffffffffffff169060200190929190505050611f4e565b005b34801561072857600080fd5b50610767600480360381019080803573ffffffffffffffffffffffffffffffffffffffff16906020019092919080359060200190929190505050611fed565b604051808681526020018581526020018481526020018060200180602001838103835285818151815260200191508051906020019080838360005b838110156107bd5780820151818401526020810190506107a2565b50505050905090810190601f1680156107ea5780820380516001836020036101000a031916815260200191505b50838103825284818151815260200191508051906020019080838360005b83811015610823578082015181840152602081019050610808565b50505050905090810190601f1680156108505780820380516001836020036101000a031916815260200191505b5097505050505050505060405180910390f35b600060a060405190810160405280600454815260200183815260200160045481526020018581526020018481525060026000600454815260200190815260200160002060008201518160000155602082015181600101556040820151816002015560608201518160030190805190602001906108e09291906122c6565b5060808201518160040190805190602001906108fd9291906122c6565b50905050600160045401600481905550600190509392505050565b60008060026000848152602001908152602001600020600080820160009055600182016000905560028201600090556003820160006109579190612346565b6004820160006109679190612346565b50508290505b600160045403811015610a765760026000600183018152602001908152602001600020600001546002600060018401815260200190815260200160002060020181905550806002600060018401815260200190815260200160002060000181905550600260006001830181526020019081526020016000206002600083815260200190815260200160002060008201548160000155600182015481600101556002820154816002015560038201816003019080546001816001161561010002031660029004610a3d92919061238e565b5060048201816004019080546001816001161561010002031660029004610a6592919061238e565b50905050808060010191505061096d565b60026000600160045403815260200190815260200160002060008082016000905560018201600090556002820160009055600382016000610ab79190612346565b600482016000610ac79190612346565b50506001600454036004819055506001915050919050565b606080606060006060806060806060806060600360008d73ffffffffffffffffffffffffffffffffffffffff1673ffffffffffffffffffffffffffffffffffffffff168152602001908152602001600020805480602002602001604051908101604052809291908181526020016000905b82821015610ce5578382906000526020600020906005020160a06040519081016040529081600082015481526020016001820154815260200160028201548152602001600382018054600181600116156101000203166002900480601f016020809104026020016040519081016040528092919081815260200182805460018160011615610100020316600290048015610c2b5780601f10610c0057610100808354040283529160200191610c2b565b820191906000526020600020905b815481529060010190602001808311610c0e57829003601f168201915b50505050508152602001600482018054600181600116156101000203166002900480601f016020809104026020016040519081016040528092919081815260200182805460018160011615610100020316600290048015610ccd5780601f10610ca257610100808354040283529160200191610ccd565b820191906000526020600020905b815481529060010190602001808311610cb057829003601f168201915b50505050508152505081526020019060010190610b50565b505050509950600097505b89518810156112eb57610d1d8a89815181101515610d0a57fe5b906020019060200201516000015161216f565b9650610d438a89815181101515610d3057fe5b906020019060200201516020015161216f565b95508988815181101515610d5357fe5b906020019060200201516080015194508988815181101515610d7157fe5b90602001906020020151606001519350610d8a8861216f565b9250610db08a89815181101515610d9d57fe5b906020019060200201516040015161216f565b91506040516020018060000190506040516020818303038152906040526040518082805190602001908083835b602083101515610e025780518252602082019150602081019050602083039250610ddd565b6001836020036101000a038019825116818451168082178552505050505050905001915050604051809103902060001916846040516020018082805190602001908083835b602083101515610e6c5780518252602082019150602081019050602083039250610e47565b6001836020036101000a0380198251168184511680821785525050505050509050019150506040516020818303038152906040526040518082805190602001908083835b602083101515610ed55780518252602082019150602081019050602083039250610eb0565b6001836020036101000a0380198251168184511680821785525050505050509050019150506040518091039020600019161415610f11576112de565b8686868686866040516020018087805190602001908083835b602083101515610f4f5780518252602082019150602081019050602083039250610f2a565b6001836020036101000a038019825116818451168082178552505050505050905001807f2c0000000000000000000000000000000000000000000000000000000000000081525060010186805190602001908083835b602083101515610fca5780518252602082019150602081019050602083039250610fa5565b6001836020036101000a038019825116818451168082178552505050505050905001807f2c0000000000000000000000000000000000000000000000000000000000000081525060010185805190602001908083835b6020831015156110455780518252602082019150602081019050602083039250611020565b6001836020036101000a038019825116818451168082178552505050505050905001807f2c0000000000000000000000000000000000000000000000000000000000000081525060010184805190602001908083835b6020831015156110c0578051825260208201915060208101905060208303925061109b565b6001836020036101000a038019825116818451168082178552505050505050905001807f2c0000000000000000000000000000000000000000000000000000000000000081525060010183805190602001908083835b60208310151561113b5780518252602082019150602081019050602083039250611116565b6001836020036101000a038019825116818451168082178552505050505050905001807f2c0000000000000000000000000000000000000000000000000000000000000081525060010182805190602001908083835b6020831015156111b65780518252602082019150602081019050602083039250611191565b6001836020036101000a0380198251168184511680821785525050505050509050019650505050505050604051602081830303815290604052905088816040516020018083805190602001908083835b60208310151561122b5780518252602082019150602081019050602083039250611206565b6001836020036101000a03801982511681845116808217855250505050505090500182805190602001908083835b60208310151561127e5780518252602082019150602081019050602083039250611259565b6001836020036101000a038019825116818451168082178552505050505050905001807f2f2f0000000000000000000000000000000000000000000000000000000000008152506002019250505060405160208183030381529060405298505b8780600101985050610cf0565b889a5050505050505050505050919050565b6002602052806000526040600020600091509050806000015490806001015490806002015490806003018054600181600116156101000203166002900480601f0160208091040260200160405190810160405280929190818152602001828054600181600116156101000203166002900480156113bb5780601f10611390576101008083540402835291602001916113bb565b820191906000526020600020905b81548152906001019060200180831161139e57829003601f168201915b505050505090806004018054600181600116156101000203166002900480601f0160208091040260200160405190810160405280929190818152602001828054600181600116156101000203166002900480156114595780601f1061142e57610100808354040283529160200191611459565b820191906000526020600020905b81548152906001019060200180831161143c57829003601f168201915b5050505050905085565b60045481565b600160009054906101000a900473ffffffffffffffffffffffffffffffffffffffff1673ffffffffffffffffffffffffffffffffffffffff163373ffffffffffffffffffffffffffffffffffffffff161415156114c557600080fd5b600160009054906101000a900473ffffffffffffffffffffffffffffffffffffffff1673ffffffffffffffffffffffffffffffffffffffff166000809054906101000a900473ffffffffffffffffffffffffffffffffffffffff1673ffffffffffffffffffffffffffffffffffffffff167f8be0079c531659141344cd1fd0a4f28419497f9722a3daafe3b4186f6b6457e060405160405180910390a3600160009054906101000a900473ffffffffffffffffffffffffffffffffffffffff166000806101000a81548173ffffffffffffffffffffffffffffffffffffffff021916908373ffffffffffffffffffffffffffffffffffffffff1602179055506000600160006101000a81548173ffffffffffffffffffffffffffffffffffffffff021916908373ffffffffffffffffffffffffffffffffffffffff160217905550565b6000600454905090565b60608060006060806060806060806060600197505b60045488111515611d3b57611651600260008a81526020019081526020016000206000015461216f565b9650611672600260008a81526020019081526020016000206001015461216f565b9550600260008981526020019081526020016000206004018054600181600116156101000203166002900480601f01602080910402602001604051908101604052809291908181526020018280546001816001161561010002031660029004801561171e5780601f106116f35761010080835404028352916020019161171e565b820191906000526020600020905b81548152906001019060200180831161170157829003601f168201915b50505050509450600260008981526020019081526020016000206003018054600181600116156101000203166002900480601f0160208091040260200160405190810160405280929190818152602001828054600181600116156101000203166002900480156117cf5780601f106117a4576101008083540402835291602001916117cf565b820191906000526020600020905b8154815290600101906020018083116117b257829003601f168201915b505050505093506117df8861216f565b9250611800600260008a81526020019081526020016000206002015461216f565b91506040516020018060000190506040516020818303038152906040526040518082805190602001908083835b602083101515611852578051825260208201915060208101905060208303925061182d565b6001836020036101000a038019825116818451168082178552505050505050905001915050604051809103902060001916846040516020018082805190602001908083835b6020831015156118bc5780518252602082019150602081019050602083039250611897565b6001836020036101000a0380198251168184511680821785525050505050509050019150506040516020818303038152906040526040518082805190602001908083835b6020831015156119255780518252602082019150602081019050602083039250611900565b6001836020036101000a038019825116818451168082178552505050505050905001915050604051809103902060001916141561196157611d2e565b8686868686866040516020018087805190602001908083835b60208310151561199f578051825260208201915060208101905060208303925061197a565b6001836020036101000a038019825116818451168082178552505050505050905001807f2c0000000000000000000000000000000000000000000000000000000000000081525060010186805190602001908083835b602083101515611a1a57805182526020820191506020810190506020830392506119f5565b6001836020036101000a038019825116818451168082178552505050505050905001807f2c0000000000000000000000000000000000000000000000000000000000000081525060010185805190602001908083835b602083101515611a955780518252602082019150602081019050602083039250611a70565b6001836020036101000a038019825116818451168082178552505050505050905001807f2c0000000000000000000000000000000000000000000000000000000000000081525060010184805190602001908083835b602083101515611b105780518252602082019150602081019050602083039250611aeb565b6001836020036101000a038019825116818451168082178552505050505050905001807f2c0000000000000000000000000000000000000000000000000000000000000081525060010183805190602001908083835b602083101515611b8b5780518252602082019150602081019050602083039250611b66565b6001836020036101000a038019825116818451168082178552505050505050905001807f2c0000000000000000000000000000000000000000000000000000000000000081525060010182805190602001908083835b602083101515611c065780518252602082019150602081019050602083039250611be1565b6001836020036101000a0380198251168184511680821785525050505050509050019650505050505050604051602081830303815290604052905088816040516020018083805190602001908083835b602083101515611c7b5780518252602082019150602081019050602083039250611c56565b6001836020036101000a03801982511681845116808217855250505050505090500182805190602001908083835b602083101515611cce5780518252602082019150602081019050602083039250611ca9565b6001836020036101000a038019825116818451168082178552505050505050905001807f2f2f0000000000000000000000000000000000000000000000000000000000008152506002019250505060405160208183030381529060405298505b8780600101985050611627565b88995050505050505050505090565b6000809054906101000a900473ffffffffffffffffffffffffffffffffffffffff1681565b6000600360008473ffffffffffffffffffffffffffffffffffffffff1673ffffffffffffffffffffffffffffffffffffffff16815260200190815260200160002082815481101515611dbd57fe5b906000526020600020906005020160008082016000905560018201600090556002820160009055600382016000611df49190612346565b600482016000611e049190612346565b50506001905092915050565b600160009054906101000a900473ffffffffffffffffffffffffffffffffffffffff1681565b6000846002600087815260200190815260200160002060020181905550600360008773ffffffffffffffffffffffffffffffffffffffff1673ffffffffffffffffffffffffffffffffffffffff168152602001908152602001600020600260008781526020019081526020016000209080600181540180825580915050906001820390600052602060002090600502016000909192909190915060008201548160000155600182015481600101556002820154816002015560038201816003019080546001816001161561010002031660029004611f1592919061238e565b5060048201816004019080546001816001161561010002031660029004611f3d92919061238e565b505050506001905095945050505050565b6000809054906101000a900473ffffffffffffffffffffffffffffffffffffffff1673ffffffffffffffffffffffffffffffffffffffff163373ffffffffffffffffffffffffffffffffffffffff16141515611fa957600080fd5b80600160006101000a81548173ffffffffffffffffffffffffffffffffffffffff021916908373ffffffffffffffffffffffffffffffffffffffff16021790555050565b60036020528160005260406000208181548110151561200857fe5b906000526020600020906005020160009150915050806000015490806001015490806002015490806003018054600181600116156101000203166002900480601f0160208091040260200160405190810160405280929190818152602001828054600181600116156101000203166002900480156120c75780601f1061209c576101008083540402835291602001916120c7565b820191906000526020600020905b8154815290600101906020018083116120aa57829003601f168201915b505050505090806004018054600181600116156101000203166002900480601f0160208091040260200160405190810160405280929190818152602001828054600181600116156101000203166002900480156121655780601f1061213a57610100808354040283529160200191612165565b820191906000526020600020905b81548152906001019060200180831161214857829003601f168201915b5050505050905085565b606060008060606000808614156121bd576040805190810160405280600181526020017f300000000000000000000000000000000000000000000000000000000000000081525094506122bd565b8593505b6000841415156121e7578280600101935050600a848115156121df57fe5b0493506121c1565b826040519080825280601f01601f19166020018201604052801561221a5781602001602082028038833980820191505090505b5091506001830390505b6000861415156122b957600a8681151561223a57fe5b066030017f01000000000000000000000000000000000000000000000000000000000000000282828060019003935081518110151561227557fe5b9060200101907effffffffffffffffffffffffffffffffffffffffffffffffffffffffffffff1916908160001a905350600a868115156122b157fe5b049550612224565b8194505b50505050919050565b828054600181600116156101000203166002900490600052602060002090601f016020900481019282601f1061230757805160ff1916838001178555612335565b82800160010185558215612335579182015b82811115612334578251825591602001919060010190612319565b5b5090506123429190612415565b5090565b50805460018160011615610100020316600290046000825580601f1061236c575061238b565b601f01602090049060005260206000209081019061238a9190612415565b5b50565b828054600181600116156101000203166002900490600052602060002090601f016020900481019282601f106123c75780548555612404565b8280016001018555821561240457600052602060002091601f016020900482015b828111156124035782548255916001019190600101906123e8565b5b5090506124119190612415565b5090565b61243791905b8082111561243357600081600090555060010161241b565b5090565b905600a165627a7a7230582072bac971009d3a37e093e8dcc7c86cc7adecbda2c21cdff8184b5bf0fe993f6c0029",
  "source": "pragma solidity  >=0.4.24 <0.7.0;\r\n\r\n// ----------------------------------------------------------------------------\r\n// Owned contract\r\n// ----------------------------------------------------------------------------\r\ncontract Owned {\r\n    address public owner;\r\n    address public newOwner;\r\n\r\n    event OwnershipTransferred(address indexed _from, address indexed _to);\r\n\r\n    constructor() public {\r\n        owner = msg.sender;\r\n    }\r\n\r\n    modifier onlyOwner {\r\n        require(msg.sender == owner);\r\n        _;\r\n    }\r\n\r\n    function transferOwnership(address _newOwner) public onlyOwner {\r\n        newOwner = _newOwner;\r\n    }\r\n    function acceptOwnership() public {\r\n        require(msg.sender == newOwner);\r\n        emit OwnershipTransferred(owner, newOwner);\r\n        owner = newOwner;\r\n        newOwner = address(0);\r\n    }\r\n}\r\ncontract Stuff is Owned{\r\n    struct stuffInfo{\r\n        uint code;\r\n        uint cost;\r\n        uint precode;\r\n        string name;\r\n        string imgsrc;\r\n    }\r\n    mapping(uint=> stuffInfo) public stuffArray;\r\n    //mapping(address=> stuffInfo[]) public personal;\r\n    mapping(address=> stuffInfo[]) public personalitems;\r\n    uint public num;\r\n    // uint public subnum;\r\n\r\n    event  StuffInfo(uint code, string name,string imgsrc, uint cost);\r\n    constructor() public {\r\n        num = 1;\r\n    }\r\n\r\n    // Adopting a itemss\r\n    function stuffbuy(address _buyer, uint _stuffCode, string memory _name, string memory _src, uint _cost) public returns(bool success ) {\r\n        \r\n\r\n        // if(_stuffCode <=8){ \r\n        //     stuffArray[_stuffCode]=stuffInfo(_stuffCode,_cost,_name,_src);\r\n        // }\r\n        stuffArray[_stuffCode].precode = _stuffCode;\r\n        personalitems[_buyer].push(stuffArray[_stuffCode]);\r\n        \r\n        // emit StuffInfo(stuffArray[_stuffCode].code, stuffArray[_stuffCode].name,stuffArray[_stuffCode].imgsrc, stuffArray[_stuffCode].cost);\r\n        return true;\r\n    }\r\n    // owner\r\n    function registerStuff(string _name, string _imgsrc, uint _cost) public returns(bool success){\r\n        \r\n        \r\n        stuffArray[num]=stuffInfo(num,_cost, num,_name,_imgsrc);\r\n        num = num + 1;\r\n\r\n        return true;\r\n    }\r\n    function deleteMyStuff(address buyer, uint index) public returns(bool success) {\r\n\r\n        delete personalitems[buyer][index];\r\n        return true;\r\n    }\r\n    function deleteStuff(uint _code) public returns(bool success) {\r\n\r\n        delete stuffArray[_code];\r\n        for( uint i=_code; i < num - 1; i++){\r\n            stuffArray[i+1].precode = stuffArray[i+1].code;\r\n            stuffArray[i+1].code = i;\r\n            stuffArray[i] = stuffArray[i+1];\r\n        }\r\n        delete stuffArray[num - 1];\r\n        num = num - 1;\r\n        return true;\r\n    }\r\n    function getStuff() public view returns(string memory){\r\n        string memory citems;\r\n        for( uint i = 1; i <= num; i++){\r\n            string memory stuffCode = uint2str(stuffArray[i].code);\r\n            string memory cost = uint2str(stuffArray[i].cost);\r\n            string memory imgsrc = stuffArray[i].imgsrc;\r\n            string memory name = stuffArray[i].name;\r\n            string memory index = uint2str(i);\r\n            string memory precode = uint2str(stuffArray[i].precode);\r\n            if(keccak256(abi.encodePacked(name)) == keccak256(abi.encodePacked(\"\"))){\r\n                continue;\r\n            }\r\n            string memory val = string(abi.encodePacked(stuffCode, \",\", cost, \",\", imgsrc, \",\", name, \",\", index, \",\", precode));\r\n            citems = string(abi.encodePacked(citems, val, \"//\"));\r\n        }\r\n        return citems;\r\n    } \r\n    function getMyStuff(address buyer) public view returns(string memory){\r\n        stuffInfo[] memory items = personalitems[buyer];\r\n        string memory citems;\r\n        \r\n        for( uint i = 0; i<items.length; i++){\r\n            string memory stuffCode = uint2str(items[i].code);\r\n            string memory cost = uint2str(items[i].cost);\r\n            string memory imgsrc = items[i].imgsrc;\r\n            string memory name = items[i].name;\r\n            string memory index = uint2str(i);\r\n            string memory precode = uint2str(items[i].precode);\r\n            if(keccak256(abi.encodePacked(name)) == keccak256(abi.encodePacked(\"\"))){\r\n                continue;\r\n            }\r\n            string memory val = string(abi.encodePacked(stuffCode, \",\", cost, \",\", imgsrc, \",\", name, \",\", index, \",\", precode));\r\n            \r\n            citems = string(abi.encodePacked(citems, val, \"//\"));\r\n        }\r\n        return citems;\r\n    }    \r\n    function getnum() public view returns( uint){\r\n        return num;\r\n    }\r\n    \r\n    // function getPersonal(address addr)public view returns(uint){\r\n    //     return personal[addr].length;\r\n    // }\r\n    \r\n    // function getPersonalStuff(address addr, uint id) public view returns(uint, string , string , uint ,address , bool ){\r\n    //     stuffInfo memory tmp=personal[addr][id];\r\n    //     return (tmp.code,tmp.name, tmp.description,tmp.cost,tmp.owner,tmp.isBuy);\r\n    // }\r\n    function uint2str(uint i) internal pure returns (string){\r\n        if (i == 0) return \"0\";\r\n        uint j = i;\r\n        uint length;\r\n        while (j != 0){\r\n            length++;\r\n            j /= 10;\r\n        }\r\n        bytes memory bstr = new bytes(length);\r\n        uint k = length - 1;\r\n        while (i != 0){\r\n            bstr[k--] = byte(48 + i % 10);\r\n            i /= 10;\r\n        }\r\n        return string(bstr);\r\n    }\r\n\r\n}\r\n\r\n\r\n",
  "sourcePath": "D:\\BlockChainDApp\\Store_Dapp\\contracts\\Stuff.sol",
  "compiler": {
    "name": "solc",
    "version": "0.4.24+commit.e67f0147.Emscripten.clang"
  },
  "schemaVersion": "3.0.23",
  "updatedAt": "2020-03-16T08:29:09.416Z",
  "networkType": "ethereum",
  "devdoc": {
    "methods": {}
  },
  "userdoc": {
    "methods": {}
  }
}