{
  "contractName": "Stuff",
  "abi": [
    {
      "constant": true,
      "inputs": [],
      "name": "index",
      "outputs": [
        {
          "name": "",
          "type": "uint256"
        }
      ],
      "payable": false,
      "stateMutability": "view",
      "type": "function"
    },
    {
      "constant": true,
      "inputs": [
        {
          "name": "",
          "type": "uint256"
        }
      ],
      "name": "stuffArray",
      "outputs": [
        {
          "name": "code",
          "type": "uint256"
        },
        {
          "name": "cost",
          "type": "uint256"
        },
        {
          "name": "name",
          "type": "string"
        },
        {
          "name": "imgsrc",
          "type": "string"
        }
      ],
      "payable": false,
      "stateMutability": "view",
      "type": "function"
    },
    {
      "constant": false,
      "inputs": [],
      "name": "acceptOwnership",
      "outputs": [],
      "payable": false,
      "stateMutability": "nonpayable",
      "type": "function"
    },
    {
      "constant": true,
      "inputs": [],
      "name": "owner",
      "outputs": [
        {
          "name": "",
          "type": "address"
        }
      ],
      "payable": false,
      "stateMutability": "view",
      "type": "function"
    },
    {
      "constant": true,
      "inputs": [],
      "name": "stuffCode",
      "outputs": [
        {
          "name": "",
          "type": "uint256"
        }
      ],
      "payable": false,
      "stateMutability": "view",
      "type": "function"
    },
    {
      "constant": true,
      "inputs": [],
      "name": "newOwner",
      "outputs": [
        {
          "name": "",
          "type": "address"
        }
      ],
      "payable": false,
      "stateMutability": "view",
      "type": "function"
    },
    {
      "constant": false,
      "inputs": [
        {
          "name": "_newOwner",
          "type": "address"
        }
      ],
      "name": "transferOwnership",
      "outputs": [],
      "payable": false,
      "stateMutability": "nonpayable",
      "type": "function"
    },
    {
      "constant": true,
      "inputs": [
        {
          "name": "",
          "type": "address"
        },
        {
          "name": "",
          "type": "uint256"
        }
      ],
      "name": "personalitems",
      "outputs": [
        {
          "name": "code",
          "type": "uint256"
        },
        {
          "name": "cost",
          "type": "uint256"
        },
        {
          "name": "name",
          "type": "string"
        },
        {
          "name": "imgsrc",
          "type": "string"
        }
      ],
      "payable": false,
      "stateMutability": "view",
      "type": "function"
    },
    {
      "inputs": [],
      "payable": false,
      "stateMutability": "nonpayable",
      "type": "constructor"
    },
    {
      "anonymous": false,
      "inputs": [
        {
          "indexed": false,
          "name": "code",
          "type": "uint256"
        },
        {
          "indexed": false,
          "name": "name",
          "type": "string"
        },
        {
          "indexed": false,
          "name": "imgsrc",
          "type": "string"
        },
        {
          "indexed": false,
          "name": "cost",
          "type": "uint256"
        }
      ],
      "name": "StuffInfo",
      "type": "event"
    },
    {
      "anonymous": false,
      "inputs": [
        {
          "indexed": true,
          "name": "_from",
          "type": "address"
        },
        {
          "indexed": true,
          "name": "_to",
          "type": "address"
        }
      ],
      "name": "OwnershipTransferred",
      "type": "event"
    },
    {
      "constant": false,
      "inputs": [
        {
          "name": "_buyer",
          "type": "address"
        },
        {
          "name": "_stuffCode",
          "type": "uint256"
        },
        {
          "name": "_name",
          "type": "string"
        },
        {
          "name": "_src",
          "type": "string"
        },
        {
          "name": "_cost",
          "type": "uint256"
        }
      ],
      "name": "stuffbuy",
      "outputs": [
        {
          "name": "success",
          "type": "bool"
        }
      ],
      "payable": false,
      "stateMutability": "nonpayable",
      "type": "function"
    },
    {
      "constant": false,
      "inputs": [
        {
          "name": "_name",
          "type": "string"
        },
        {
          "name": "_imgsrc",
          "type": "string"
        },
        {
          "name": "_cost",
          "type": "uint256"
        }
      ],
      "name": "registerStuff",
      "outputs": [
        {
          "name": "success",
          "type": "bool"
        }
      ],
      "payable": false,
      "stateMutability": "nonpayable",
      "type": "function"
    },
    {
      "constant": false,
      "inputs": [
        {
          "name": "buyer",
          "type": "address"
        },
        {
          "name": "index",
          "type": "uint256"
        }
      ],
      "name": "deleteMyStuff",
      "outputs": [
        {
          "name": "success",
          "type": "bool"
        }
      ],
      "payable": false,
      "stateMutability": "nonpayable",
      "type": "function"
    },
    {
      "constant": false,
      "inputs": [
        {
          "name": "_code",
          "type": "uint256"
        }
      ],
      "name": "deleteStuff",
      "outputs": [
        {
          "name": "success",
          "type": "bool"
        }
      ],
      "payable": false,
      "stateMutability": "nonpayable",
      "type": "function"
    },
    {
      "constant": true,
      "inputs": [],
      "name": "getStuff",
      "outputs": [
        {
          "name": "",
          "type": "string"
        }
      ],
      "payable": false,
      "stateMutability": "view",
      "type": "function"
    },
    {
      "constant": true,
      "inputs": [
        {
          "name": "buyer",
          "type": "address"
        }
      ],
      "name": "getMyStuff",
      "outputs": [
        {
          "name": "",
          "type": "string"
        }
      ],
      "payable": false,
      "stateMutability": "view",
      "type": "function"
    },
    {
      "constant": true,
      "inputs": [],
      "name": "getnum",
      "outputs": [
        {
          "name": "",
          "type": "uint256"
        }
      ],
      "payable": false,
      "stateMutability": "view",
      "type": "function"
    }
  ],
  "bytecode": "0x608060405234801561001057600080fd5b50336000806101000a81548173ffffffffffffffffffffffffffffffffffffffff021916908373ffffffffffffffffffffffffffffffffffffffff16021790555060006004819055506000600581905550612295806100706000396000f3006080604052600436106100db576000357c0100000000000000000000000000000000000000000000000000000000900463ffffffff16806329690ace146100e05780632986c0e5146101b15780632bda5c5c146101dc578063315d69fd1461022157806335eb04d0146102dd57806379ba5097146103fd5780637d36887314610414578063874057581461043f5780638da5cb5b146104cf5780639b9bb01b146105265780639de4dc1c1461058b578063d4ee1d90146105b6578063db8285d81461060d578063f2fde38b14610708578063f9c1a9ba1461074b575b600080fd5b3480156100ec57600080fd5b50610197600480360381019080803590602001908201803590602001908080601f0160208091040260200160405190810160405280939291908181526020018383808284378201915050505050509192919290803590602001908201803590602001908080601f01602080910402602001604051908101604052809392919081815260200183838082843782019150505050505091929192908035906020019092919050505061088b565b604051808215151515815260200191505060405180910390f35b3480156101bd57600080fd5b506101c661093a565b6040518082815260200191505060405180910390f35b3480156101e857600080fd5b5061020760048036038101908080359060200190929190505050610940565b604051808215151515815260200191505060405180910390f35b34801561022d57600080fd5b50610262600480360381019080803573ffffffffffffffffffffffffffffffffffffffff169060200190929190505050610a98565b6040518080602001828103825283818151815260200191508051906020019080838360005b838110156102a2578082015181840152602081019050610287565b50505050905090810190601f1680156102cf5780820380516001836020036101000a031916815260200191505b509250505060405180910390f35b3480156102e957600080fd5b5061030860048036038101908080359060200190929190505050611206565b604051808581526020018481526020018060200180602001838103835285818151815260200191508051906020019080838360005b8381101561035857808201518184015260208101905061033d565b50505050905090810190601f1680156103855780820380516001836020036101000a031916815260200191505b50838103825284818151815260200191508051906020019080838360005b838110156103be5780820151818401526020810190506103a3565b50505050905090810190601f1680156103eb5780820380516001836020036101000a031916815260200191505b50965050505050505060405180910390f35b34801561040957600080fd5b50610412611366565b005b34801561042057600080fd5b50610429611505565b6040518082815260200191505060405180910390f35b34801561044b57600080fd5b5061045461150f565b6040518080602001828103825283818151815260200191508051906020019080838360005b83811015610494578082015181840152602081019050610479565b50505050905090810190601f1680156104c15780820380516001836020036101000a031916815260200191505b509250505060405180910390f35b3480156104db57600080fd5b506104e4611ba6565b604051808273ffffffffffffffffffffffffffffffffffffffff1673ffffffffffffffffffffffffffffffffffffffff16815260200191505060405180910390f35b34801561053257600080fd5b50610571600480360381019080803573ffffffffffffffffffffffffffffffffffffffff16906020019092919080359060200190929190505050611bcb565b604051808215151515815260200191505060405180910390f35b34801561059757600080fd5b506105a0611c64565b6040518082815260200191505060405180910390f35b3480156105c257600080fd5b506105cb611c6a565b604051808273ffffffffffffffffffffffffffffffffffffffff1673ffffffffffffffffffffffffffffffffffffffff16815260200191505060405180910390f35b34801561061957600080fd5b506106ee600480360381019080803573ffffffffffffffffffffffffffffffffffffffff16906020019092919080359060200190929190803590602001908201803590602001908080601f0160208091040260200160405190810160405280939291908181526020018383808284378201915050505050509192919290803590602001908201803590602001908080601f016020809104026020016040519081016040528093929190818152602001838380828437820191505050505050919291929080359060200190929190505050611c90565b604051808215151515815260200191505060405180910390f35b34801561071457600080fd5b50610749600480360381019080803573ffffffffffffffffffffffffffffffffffffffff169060200190929190505050611d83565b005b34801561075757600080fd5b50610796600480360381019080803573ffffffffffffffffffffffffffffffffffffffff16906020019092919080359060200190929190505050611e22565b604051808581526020018481526020018060200180602001838103835285818151815260200191508051906020019080838360005b838110156107e65780820151818401526020810190506107cb565b50505050905090810190601f1680156108135780820380516001836020036101000a031916815260200191505b50838103825284818151815260200191508051906020019080838360005b8381101561084c578082015181840152602081019050610831565b50505050905090810190601f1680156108795780820380516001836020036101000a031916815260200191505b50965050505050505060405180910390f35b6000608060405190810160405280600554815260200183815260200185815260200184815250600260006004548152602001908152602001600020600082015181600001556020820151816001015560408201518160020190805190602001906108f69291906120f5565b5060608201518160030190805190602001906109139291906120f5565b50905050600160045401600481905550600160055401600581905550600190509392505050565b60045481565b6000806002600084815260200190815260200160002060008082016000905560018201600090556002820160006109779190612175565b6003820160006109879190612175565b50508290505b600160045403811015610a375760026000600183018152602001908152602001600020600260008381526020019081526020016000206000820154816000015560018201548160010155600282018160020190805460018160011615610100020316600290046109fe9291906121bd565b5060038201816003019080546001816001161561010002031660029004610a269291906121bd565b50905050808060010191505061098d565b6002600060016004540381526020019081526020016000206000808201600090556001820160009055600282016000610a709190612175565b600382016000610a809190612175565b50506001600454036004819055506001915050919050565b60608060606000606080606080606080600360008c73ffffffffffffffffffffffffffffffffffffffff1673ffffffffffffffffffffffffffffffffffffffff168152602001908152602001600020805480602002602001604051908101604052809291908181526020016000905b82821015610c925783829060005260206000209060040201608060405190810160405290816000820154815260200160018201548152602001600282018054600181600116156101000203166002900480601f016020809104026020016040519081016040528092919081815260200182805460018160011615610100020316600290048015610bd85780601f10610bad57610100808354040283529160200191610bd8565b820191906000526020600020905b815481529060010190602001808311610bbb57829003601f168201915b50505050508152602001600382018054600181600116156101000203166002900480601f016020809104026020016040519081016040528092919081815260200182805460018160011615610100020316600290048015610c7a5780601f10610c4f57610100808354040283529160200191610c7a565b820191906000526020600020905b815481529060010190602001808311610c5d57829003601f168201915b50505050508152505081526020019060010190610b07565b505050509850600096505b88518710156111f557610cca8988815181101515610cb757fe5b9060200190602002015160000151611f9e565b9550610cf08988815181101515610cdd57fe5b9060200190602002015160200151611f9e565b94508887815181101515610d0057fe5b906020019060200201516060015193508887815181101515610d1e57fe5b90602001906020020151604001519250610d3787611f9e565b91506040516020018060000190506040516020818303038152906040526040518082805190602001908083835b602083101515610d895780518252602082019150602081019050602083039250610d64565b6001836020036101000a038019825116818451168082178552505050505050905001915050604051809103902060001916836040516020018082805190602001908083835b602083101515610df35780518252602082019150602081019050602083039250610dce565b6001836020036101000a0380198251168184511680821785525050505050509050019150506040516020818303038152906040526040518082805190602001908083835b602083101515610e5c5780518252602082019150602081019050602083039250610e37565b6001836020036101000a0380198251168184511680821785525050505050509050019150506040518091039020600019161415610e98576111e8565b85858585856040516020018086805190602001908083835b602083101515610ed55780518252602082019150602081019050602083039250610eb0565b6001836020036101000a038019825116818451168082178552505050505050905001807f2c0000000000000000000000000000000000000000000000000000000000000081525060010185805190602001908083835b602083101515610f505780518252602082019150602081019050602083039250610f2b565b6001836020036101000a038019825116818451168082178552505050505050905001807f2c0000000000000000000000000000000000000000000000000000000000000081525060010184805190602001908083835b602083101515610fcb5780518252602082019150602081019050602083039250610fa6565b6001836020036101000a038019825116818451168082178552505050505050905001807f2c0000000000000000000000000000000000000000000000000000000000000081525060010183805190602001908083835b6020831015156110465780518252602082019150602081019050602083039250611021565b6001836020036101000a038019825116818451168082178552505050505050905001807f2c0000000000000000000000000000000000000000000000000000000000000081525060010182805190602001908083835b6020831015156110c1578051825260208201915060208101905060208303925061109c565b6001836020036101000a03801982511681845116808217855250505050505090500195505050505050604051602081830303815290604052905087816040516020018083805190602001908083835b6020831015156111355780518252602082019150602081019050602083039250611110565b6001836020036101000a03801982511681845116808217855250505050505090500182805190602001908083835b6020831015156111885780518252602082019150602081019050602083039250611163565b6001836020036101000a038019825116818451168082178552505050505050905001807f2f2f0000000000000000000000000000000000000000000000000000000000008152506002019250505060405160208183030381529060405297505b8680600101975050610c9d565b879950505050505050505050919050565b6002602052806000526040600020600091509050806000015490806001015490806002018054600181600116156101000203166002900480601f0160208091040260200160405190810160405280929190818152602001828054600181600116156101000203166002900480156112be5780601f10611293576101008083540402835291602001916112be565b820191906000526020600020905b8154815290600101906020018083116112a157829003601f168201915b505050505090806003018054600181600116156101000203166002900480601f01602080910402602001604051908101604052809291908181526020018280546001816001161561010002031660029004801561135c5780601f106113315761010080835404028352916020019161135c565b820191906000526020600020905b81548152906001019060200180831161133f57829003601f168201915b5050505050905084565b600160009054906101000a900473ffffffffffffffffffffffffffffffffffffffff1673ffffffffffffffffffffffffffffffffffffffff163373ffffffffffffffffffffffffffffffffffffffff161415156113c257600080fd5b600160009054906101000a900473ffffffffffffffffffffffffffffffffffffffff1673ffffffffffffffffffffffffffffffffffffffff166000809054906101000a900473ffffffffffffffffffffffffffffffffffffffff1673ffffffffffffffffffffffffffffffffffffffff167f8be0079c531659141344cd1fd0a4f28419497f9722a3daafe3b4186f6b6457e060405160405180910390a3600160009054906101000a900473ffffffffffffffffffffffffffffffffffffffff166000806101000a81548173ffffffffffffffffffffffffffffffffffffffff021916908373ffffffffffffffffffffffffffffffffffffffff1602179055506000600160006101000a81548173ffffffffffffffffffffffffffffffffffffffff021916908373ffffffffffffffffffffffffffffffffffffffff160217905550565b6000600454905090565b6060806000606080606080606080600096505b60045487111515611b985761154c6002600089815260200190815260200160002060000154611f9e565b955061156d6002600089815260200190815260200160002060010154611f9e565b9450600260008881526020019081526020016000206003018054600181600116156101000203166002900480601f0160208091040260200160405190810160405280929190818152602001828054600181600116156101000203166002900480156116195780601f106115ee57610100808354040283529160200191611619565b820191906000526020600020905b8154815290600101906020018083116115fc57829003601f168201915b50505050509350600260008881526020019081526020016000206002018054600181600116156101000203166002900480601f0160208091040260200160405190810160405280929190818152602001828054600181600116156101000203166002900480156116ca5780601f1061169f576101008083540402835291602001916116ca565b820191906000526020600020905b8154815290600101906020018083116116ad57829003601f168201915b505050505092506116da87611f9e565b91506040516020018060000190506040516020818303038152906040526040518082805190602001908083835b60208310151561172c5780518252602082019150602081019050602083039250611707565b6001836020036101000a038019825116818451168082178552505050505050905001915050604051809103902060001916836040516020018082805190602001908083835b6020831015156117965780518252602082019150602081019050602083039250611771565b6001836020036101000a0380198251168184511680821785525050505050509050019150506040516020818303038152906040526040518082805190602001908083835b6020831015156117ff57805182526020820191506020810190506020830392506117da565b6001836020036101000a038019825116818451168082178552505050505050905001915050604051809103902060001916141561183b57611b8b565b85858585856040516020018086805190602001908083835b6020831015156118785780518252602082019150602081019050602083039250611853565b6001836020036101000a038019825116818451168082178552505050505050905001807f2c0000000000000000000000000000000000000000000000000000000000000081525060010185805190602001908083835b6020831015156118f357805182526020820191506020810190506020830392506118ce565b6001836020036101000a038019825116818451168082178552505050505050905001807f2c0000000000000000000000000000000000000000000000000000000000000081525060010184805190602001908083835b60208310151561196e5780518252602082019150602081019050602083039250611949565b6001836020036101000a038019825116818451168082178552505050505050905001807f2c0000000000000000000000000000000000000000000000000000000000000081525060010183805190602001908083835b6020831015156119e957805182526020820191506020810190506020830392506119c4565b6001836020036101000a038019825116818451168082178552505050505050905001807f2c0000000000000000000000000000000000000000000000000000000000000081525060010182805190602001908083835b602083101515611a645780518252602082019150602081019050602083039250611a3f565b6001836020036101000a03801982511681845116808217855250505050505090500195505050505050604051602081830303815290604052905087816040516020018083805190602001908083835b602083101515611ad85780518252602082019150602081019050602083039250611ab3565b6001836020036101000a03801982511681845116808217855250505050505090500182805190602001908083835b602083101515611b2b5780518252602082019150602081019050602083039250611b06565b6001836020036101000a038019825116818451168082178552505050505050905001807f2f2f0000000000000000000000000000000000000000000000000000000000008152506002019250505060405160208183030381529060405297505b8680600101975050611522565b879850505050505050505090565b6000809054906101000a900473ffffffffffffffffffffffffffffffffffffffff1681565b6000600360008473ffffffffffffffffffffffffffffffffffffffff1673ffffffffffffffffffffffffffffffffffffffff16815260200190815260200160002082815481101515611c1957fe5b90600052602060002090600402016000808201600090556001820160009055600282016000611c489190612175565b600382016000611c589190612175565b50506001905092915050565b60055481565b600160009054906101000a900473ffffffffffffffffffffffffffffffffffffffff1681565b6000600360008773ffffffffffffffffffffffffffffffffffffffff1673ffffffffffffffffffffffffffffffffffffffff1681526020019081526020016000206002600087815260200190815260200160002090806001815401808255809150509060018203906000526020600020906004020160009091929091909150600082015481600001556001820154816001015560028201816002019080546001816001161561010002031660029004611d4a9291906121bd565b5060038201816003019080546001816001161561010002031660029004611d729291906121bd565b505050506001905095945050505050565b6000809054906101000a900473ffffffffffffffffffffffffffffffffffffffff1673ffffffffffffffffffffffffffffffffffffffff163373ffffffffffffffffffffffffffffffffffffffff16141515611dde57600080fd5b80600160006101000a81548173ffffffffffffffffffffffffffffffffffffffff021916908373ffffffffffffffffffffffffffffffffffffffff16021790555050565b600360205281600052604060002081815481101515611e3d57fe5b906000526020600020906004020160009150915050806000015490806001015490806002018054600181600116156101000203166002900480601f016020809104026020016040519081016040528092919081815260200182805460018160011615610100020316600290048015611ef65780601f10611ecb57610100808354040283529160200191611ef6565b820191906000526020600020905b815481529060010190602001808311611ed957829003601f168201915b505050505090806003018054600181600116156101000203166002900480601f016020809104026020016040519081016040528092919081815260200182805460018160011615610100020316600290048015611f945780601f10611f6957610100808354040283529160200191611f94565b820191906000526020600020905b815481529060010190602001808311611f7757829003601f168201915b5050505050905084565b60606000806060600080861415611fec576040805190810160405280600181526020017f300000000000000000000000000000000000000000000000000000000000000081525094506120ec565b8593505b600084141515612016578280600101935050600a8481151561200e57fe5b049350611ff0565b826040519080825280601f01601f1916602001820160405280156120495781602001602082028038833980820191505090505b5091506001830390505b6000861415156120e857600a8681151561206957fe5b066030017f0100000000000000000000000000000000000000000000000000000000000000028282806001900393508151811015156120a457fe5b9060200101907effffffffffffffffffffffffffffffffffffffffffffffffffffffffffffff1916908160001a905350600a868115156120e057fe5b049550612053565b8194505b50505050919050565b828054600181600116156101000203166002900490600052602060002090601f016020900481019282601f1061213657805160ff1916838001178555612164565b82800160010185558215612164579182015b82811115612163578251825591602001919060010190612148565b5b5090506121719190612244565b5090565b50805460018160011615610100020316600290046000825580601f1061219b57506121ba565b601f0160209004906000526020600020908101906121b99190612244565b5b50565b828054600181600116156101000203166002900490600052602060002090601f016020900481019282601f106121f65780548555612233565b8280016001018555821561223357600052602060002091601f016020900482015b82811115612232578254825591600101919060010190612217565b5b5090506122409190612244565b5090565b61226691905b8082111561226257600081600090555060010161224a565b5090565b905600a165627a7a72305820eeaf6cd5c182070ca0faa32801108e8a2a3ac43a9ad065ba376e302a990086ee0029",
  "source": "pragma solidity  >=0.4.24 <0.7.0;\r\n\r\n// ----------------------------------------------------------------------------\r\n// Owned contract\r\n// ----------------------------------------------------------------------------\r\ncontract Owned {\r\n    address public owner;\r\n    address public newOwner;\r\n\r\n    event OwnershipTransferred(address indexed _from, address indexed _to);\r\n\r\n    constructor() public {\r\n        owner = msg.sender;\r\n    }\r\n\r\n    modifier onlyOwner {\r\n        require(msg.sender == owner);\r\n        _;\r\n    }\r\n\r\n    function transferOwnership(address _newOwner) public onlyOwner {\r\n        newOwner = _newOwner;\r\n    }\r\n    function acceptOwnership() public {\r\n        require(msg.sender == newOwner);\r\n        emit OwnershipTransferred(owner, newOwner);\r\n        owner = newOwner;\r\n        newOwner = address(0);\r\n    }\r\n}\r\ncontract Stuff is Owned{\r\n    struct stuffInfo{\r\n        uint code;\r\n        uint cost;\r\n        string name;\r\n        string imgsrc;\r\n    }\r\n    mapping(uint=> stuffInfo) public stuffArray;\r\n    //mapping(address=> stuffInfo[]) public personal;\r\n    mapping(address=> stuffInfo[]) public personalitems;\r\n    uint public index;\r\n    uint public stuffCode;\r\n\r\n    event  StuffInfo(uint code, string name,string imgsrc, uint cost);\r\n    constructor() public {\r\n        index = 0;\r\n        stuffCode = 0;\r\n    }\r\n\r\n    // Adopting a itemss\r\n    function stuffbuy(address _buyer, uint _stuffCode, string memory _name, string memory _src, uint _cost) public returns(bool success ) {\r\n        \r\n\r\n        personalitems[_buyer].push(stuffArray[_stuffCode]);\r\n        \r\n        // emit StuffInfo(stuffArray[_stuffCode].code, stuffArray[_stuffCode].name,stuffArray[_stuffCode].imgsrc, stuffArray[_stuffCode].cost);\r\n        return true;\r\n    }\r\n    // owner\r\n    function registerStuff(string _name, string _imgsrc, uint _cost) public returns(bool success){\r\n        \r\n        \r\n        stuffArray[index]=stuffInfo(stuffCode,_cost, _name,_imgsrc);\r\n        index = index + 1;\r\n        stuffCode = stuffCode + 1;\r\n\r\n        return true;\r\n    }\r\n    function deleteMyStuff(address buyer, uint index) public returns(bool success) {\r\n\r\n        delete personalitems[buyer][index];\r\n        return true;\r\n    }\r\n    function deleteStuff(uint _code) public returns(bool success) {\r\n\r\n        delete stuffArray[_code];\r\n        for( uint i=_code; i < index - 1; i++){\r\n\r\n            stuffArray[i] = stuffArray[i+1];\r\n        }\r\n        delete stuffArray[index - 1];\r\n        index = index - 1;\r\n        return true;\r\n    }\r\n    function getStuff() public view returns(string memory){\r\n        string memory citems;\r\n        for( uint i = 0; i <= index; i++){\r\n            string memory stuffCode = uint2str(stuffArray[i].code);\r\n            string memory cost = uint2str(stuffArray[i].cost);\r\n            string memory imgsrc = stuffArray[i].imgsrc;\r\n            string memory name = stuffArray[i].name;\r\n            string memory id = uint2str(i);\r\n            if(keccak256(abi.encodePacked(name)) == keccak256(abi.encodePacked(\"\"))){\r\n                continue;\r\n            }\r\n            string memory val = string(abi.encodePacked(stuffCode, \",\", cost, \",\", imgsrc, \",\", name, \",\", id));\r\n            citems = string(abi.encodePacked(citems, val, \"//\"));\r\n        }\r\n        return citems;\r\n    } \r\n    function getMyStuff(address buyer) public view returns(string memory){\r\n        stuffInfo[] memory items = personalitems[buyer];\r\n        string memory citems;\r\n        \r\n        for( uint i = 0; i<items.length; i++){\r\n            string memory stuffCode = uint2str(items[i].code);\r\n            string memory cost = uint2str(items[i].cost);\r\n            string memory imgsrc = items[i].imgsrc;\r\n            string memory name = items[i].name;\r\n            string memory id = uint2str(i);\r\n            \r\n            if(keccak256(abi.encodePacked(name)) == keccak256(abi.encodePacked(\"\"))){\r\n                continue;\r\n            }\r\n            string memory val = string(abi.encodePacked(stuffCode, \",\", cost, \",\", imgsrc, \",\", name, \",\", id));\r\n            \r\n            citems = string(abi.encodePacked(citems, val, \"//\"));\r\n        }\r\n        return citems;\r\n    }    \r\n    function getnum() public view returns( uint){\r\n        return index;\r\n    }\r\n    \r\n    // function getPersonal(address addr)public view returns(uint){\r\n    //     return personal[addr].length;\r\n    // }\r\n    \r\n    // function getPersonalStuff(address addr, uint id) public view returns(uint, string , string , uint ,address , bool ){\r\n    //     stuffInfo memory tmp=personal[addr][id];\r\n    //     return (tmp.code,tmp.name, tmp.description,tmp.cost,tmp.owner,tmp.isBuy);\r\n    // }\r\n    function uint2str(uint i) internal pure returns (string){\r\n        if (i == 0) return \"0\";\r\n        uint j = i;\r\n        uint length;\r\n        while (j != 0){\r\n            length++;\r\n            j /= 10;\r\n        }\r\n        bytes memory bstr = new bytes(length);\r\n        uint k = length - 1;\r\n        while (i != 0){\r\n            bstr[k--] = byte(48 + i % 10);\r\n            i /= 10;\r\n        }\r\n        return string(bstr);\r\n    }\r\n\r\n}\r\n\r\n\r\n",
  "sourcePath": "D:\\BlockChainDApp\\Store_Dapp\\contracts\\Stuff.sol",
  "compiler": {
    "name": "solc",
    "version": "0.4.24+commit.e67f0147.Emscripten.clang"
  },
  "schemaVersion": "3.0.23",
  "updatedAt": "2020-03-17T01:09:45.333Z",
  "networkType": "ethereum",
  "devdoc": {
    "methods": {}
  },
  "userdoc": {
    "methods": {}
  }
}