{
  "contractName": "Stuff",
  "abi": [
    {
      "constant": true,
      "inputs": [],
      "name": "subnum",
      "outputs": [
        {
          "name": "",
          "type": "uint256"
        }
      ],
      "payable": false,
      "stateMutability": "view",
      "type": "function"
    },
    {
      "constant": true,
      "inputs": [
        {
          "name": "",
          "type": "uint256"
        }
      ],
      "name": "stuffArray",
      "outputs": [
        {
          "name": "code",
          "type": "uint256"
        },
        {
          "name": "name",
          "type": "string"
        },
        {
          "name": "description",
          "type": "string"
        },
        {
          "name": "src",
          "type": "string"
        },
        {
          "name": "cost",
          "type": "uint256"
        },
        {
          "name": "owner",
          "type": "address"
        },
        {
          "name": "isBuy",
          "type": "bool"
        }
      ],
      "payable": false,
      "stateMutability": "view",
      "type": "function"
    },
    {
      "constant": true,
      "inputs": [],
      "name": "num",
      "outputs": [
        {
          "name": "",
          "type": "uint256"
        }
      ],
      "payable": false,
      "stateMutability": "view",
      "type": "function"
    },
    {
      "constant": true,
      "inputs": [
        {
          "name": "",
          "type": "address"
        },
        {
          "name": "",
          "type": "uint256"
        }
      ],
      "name": "personal",
      "outputs": [
        {
          "name": "code",
          "type": "uint256"
        },
        {
          "name": "name",
          "type": "string"
        },
        {
          "name": "description",
          "type": "string"
        },
        {
          "name": "src",
          "type": "string"
        },
        {
          "name": "cost",
          "type": "uint256"
        },
        {
          "name": "owner",
          "type": "address"
        },
        {
          "name": "isBuy",
          "type": "bool"
        }
      ],
      "payable": false,
      "stateMutability": "view",
      "type": "function"
    },
    {
      "constant": true,
      "inputs": [
        {
          "name": "",
          "type": "address"
        },
        {
          "name": "",
          "type": "uint256"
        }
      ],
      "name": "personalitems",
      "outputs": [
        {
          "name": "",
          "type": "string"
        }
      ],
      "payable": false,
      "stateMutability": "view",
      "type": "function"
    },
    {
      "inputs": [],
      "payable": false,
      "stateMutability": "nonpayable",
      "type": "constructor"
    },
    {
      "anonymous": false,
      "inputs": [
        {
          "indexed": false,
          "name": "code",
          "type": "uint256"
        },
        {
          "indexed": false,
          "name": "name",
          "type": "string"
        },
        {
          "indexed": false,
          "name": "description",
          "type": "string"
        },
        {
          "indexed": false,
          "name": "cost",
          "type": "uint256"
        },
        {
          "indexed": false,
          "name": "owner",
          "type": "address"
        },
        {
          "indexed": false,
          "name": "isBuy",
          "type": "bool"
        }
      ],
      "name": "StuffInfo",
      "type": "event"
    },
    {
      "constant": false,
      "inputs": [
        {
          "name": "buyer",
          "type": "address"
        },
        {
          "name": "stuffCode",
          "type": "uint256"
        },
        {
          "name": "name",
          "type": "string"
        },
        {
          "name": "src",
          "type": "string"
        }
      ],
      "name": "buy",
      "outputs": [
        {
          "name": "success",
          "type": "bool"
        }
      ],
      "payable": false,
      "stateMutability": "nonpayable",
      "type": "function"
    },
    {
      "constant": false,
      "inputs": [
        {
          "name": "_owner",
          "type": "address"
        },
        {
          "name": "_name",
          "type": "string"
        },
        {
          "name": "_description",
          "type": "string"
        },
        {
          "name": "_cost",
          "type": "uint256"
        }
      ],
      "name": "registerStuff",
      "outputs": [
        {
          "name": "success",
          "type": "bool"
        }
      ],
      "payable": false,
      "stateMutability": "nonpayable",
      "type": "function"
    },
    {
      "constant": false,
      "inputs": [
        {
          "name": "_code",
          "type": "uint256"
        },
        {
          "name": "_owner",
          "type": "address"
        }
      ],
      "name": "deleteStuff",
      "outputs": [
        {
          "name": "success",
          "type": "bool"
        }
      ],
      "payable": false,
      "stateMutability": "nonpayable",
      "type": "function"
    },
    {
      "constant": true,
      "inputs": [
        {
          "name": "buyer",
          "type": "address"
        }
      ],
      "name": "getStuff",
      "outputs": [
        {
          "name": "",
          "type": "string[]"
        }
      ],
      "payable": false,
      "stateMutability": "view",
      "type": "function"
    },
    {
      "constant": true,
      "inputs": [],
      "name": "getnum",
      "outputs": [
        {
          "name": "",
          "type": "uint256"
        },
        {
          "name": "",
          "type": "uint256"
        }
      ],
      "payable": false,
      "stateMutability": "view",
      "type": "function"
    },
    {
      "constant": true,
      "inputs": [
        {
          "name": "addr",
          "type": "address"
        }
      ],
      "name": "getPersonal",
      "outputs": [
        {
          "name": "",
          "type": "uint256"
        }
      ],
      "payable": false,
      "stateMutability": "view",
      "type": "function"
    },
    {
      "constant": true,
      "inputs": [
        {
          "name": "addr",
          "type": "address"
        },
        {
          "name": "id",
          "type": "uint256"
        }
      ],
      "name": "getPersonalStuff",
      "outputs": [
        {
          "name": "",
          "type": "uint256"
        },
        {
          "name": "",
          "type": "string"
        },
        {
          "name": "",
          "type": "string"
        },
        {
          "name": "",
          "type": "uint256"
        },
        {
          "name": "",
          "type": "address"
        },
        {
          "name": "",
          "type": "bool"
        }
      ],
      "payable": false,
      "stateMutability": "view",
      "type": "function"
    }
  ],
  "bytecode": "0x608060405234801561001057600080fd5b506000600381905550611f99806100286000396000f3006080604052600436106100ba576000357c0100000000000000000000000000000000000000000000000000000000900463ffffffff1680630fb37e4b146100bf5780631fad3587146100ea57806335eb04d0146101275780634d3a4ab91461016a5780634e70b1dc146101ac5780637d368873146101d757806387afa4211461020357806395540c3f14610240578063b696a94a14610283578063f03b1998146102c0578063f3c70621146102fd578063f9c1a9ba1461033a575b600080fd5b3480156100cb57600080fd5b506100d4610377565b6040516100e19190611c60565b60405180910390f35b3480156100f657600080fd5b50610111600480360361010c9190810190611884565b61037d565b60405161011e9190611c60565b60405180910390f35b34801561013357600080fd5b5061014e60048036036101499190810190611a0f565b6103c9565b6040516101619796959493929190611cea565b60405180910390f35b34801561017657600080fd5b50610191600480360361018c9190810190611940565b610600565b6040516101a396959493929190611c7b565b60405180910390f35b3480156101b857600080fd5b506101c1610920565b6040516101ce9190611c60565b60405180910390f35b3480156101e357600080fd5b506101ec610926565b6040516101fa929190611ddd565b60405180910390f35b34801561020f57600080fd5b5061022a60048036036102259190810190611a38565b610937565b6040516102379190611c23565b60405180910390f35b34801561024c57600080fd5b5061026760048036036102629190810190611940565b610a76565b60405161027a9796959493929190611cea565b60405180910390f35b34801561028f57600080fd5b506102aa60048036036102a591908101906118ad565b610cc9565b6040516102b79190611c23565b60405180910390f35b3480156102cc57600080fd5b506102e760048036036102e29190810190611884565b610e30565b6040516102f49190611c01565b60405180910390f35b34801561030957600080fd5b50610324600480360361031f919081019061197c565b610f5e565b6040516103319190611c23565b60405180910390f35b34801561034657600080fd5b50610361600480360361035c9190810190611940565b6114f4565b60405161036e9190611c3e565b60405180910390f35b60045481565b6000600160008373ffffffffffffffffffffffffffffffffffffffff1673ffffffffffffffffffffffffffffffffffffffff168152602001908152602001600020805490509050919050565b6000602052806000526040600020600091509050806000015490806001018054600181600116156101000203166002900480601f01602080910402602001604051908101604052809291908181526020018280546001816001161561010002031660029004801561047b5780601f106104505761010080835404028352916020019161047b565b820191906000526020600020905b81548152906001019060200180831161045e57829003601f168201915b505050505090806002018054600181600116156101000203166002900480601f0160208091040260200160405190810160405280929190818152602001828054600181600116156101000203166002900480156105195780601f106104ee57610100808354040283529160200191610519565b820191906000526020600020905b8154815290600101906020018083116104fc57829003601f168201915b505050505090806003018054600181600116156101000203166002900480601f0160208091040260200160405190810160405280929190818152602001828054600181600116156101000203166002900480156105b75780601f1061058c576101008083540402835291602001916105b7565b820191906000526020600020905b81548152906001019060200180831161059a57829003601f168201915b5050505050908060040154908060050160009054906101000a900473ffffffffffffffffffffffffffffffffffffffff16908060050160149054906101000a900460ff16905087565b600060608060008060006106126115bc565b600160008a73ffffffffffffffffffffffffffffffffffffffff1673ffffffffffffffffffffffffffffffffffffffff1681526020019081526020016000208881548110151561065e57fe5b906000526020600020906006020160e0604051908101604052908160008201548152602001600182018054600181600116156101000203166002900480601f01602080910402602001604051908101604052809291908181526020018280546001816001161561010002031660029004801561071b5780601f106106f05761010080835404028352916020019161071b565b820191906000526020600020905b8154815290600101906020018083116106fe57829003601f168201915b50505050508152602001600282018054600181600116156101000203166002900480601f0160208091040260200160405190810160405280929190818152602001828054600181600116156101000203166002900480156107bd5780601f10610792576101008083540402835291602001916107bd565b820191906000526020600020905b8154815290600101906020018083116107a057829003601f168201915b50505050508152602001600382018054600181600116156101000203166002900480601f01602080910402602001604051908101604052809291908181526020018280546001816001161561010002031660029004801561085f5780601f106108345761010080835404028352916020019161085f565b820191906000526020600020905b81548152906001019060200180831161084257829003601f168201915b50505050508152602001600482015481526020016005820160009054906101000a900473ffffffffffffffffffffffffffffffffffffffff1673ffffffffffffffffffffffffffffffffffffffff1673ffffffffffffffffffffffffffffffffffffffff1681526020016005820160149054906101000a900460ff161515151581525050905080600001518160200151826040015183608001518460a001518560c00151849450839350965096509650965096509650509295509295509295565b60035481565b600080600354600454915091509091565b60008173ffffffffffffffffffffffffffffffffffffffff1660008085815260200190815260200160002060050160009054906101000a900473ffffffffffffffffffffffffffffffffffffffff1673ffffffffffffffffffffffffffffffffffffffff161415156109a857600080fd5b82600080858152602001908152602001600020600001541415156109cb57600080fd5b6000808481526020019081526020016000206000808201600090556001820160006109f69190611612565b600282016000610a069190611612565b600382016000610a169190611612565b60048201600090556005820160006101000a81549073ffffffffffffffffffffffffffffffffffffffff02191690556005820160146101000a81549060ff0219169055505060016004600082825401925050819055506001905092915050565b600160205281600052604060002081815481101515610a9157fe5b906000526020600020906006020160009150915050806000015490806001018054600181600116156101000203166002900480601f016020809104026020016040519081016040528092919081815260200182805460018160011615610100020316600290048015610b445780601f10610b1957610100808354040283529160200191610b44565b820191906000526020600020905b815481529060010190602001808311610b2757829003601f168201915b505050505090806002018054600181600116156101000203166002900480601f016020809104026020016040519081016040528092919081815260200182805460018160011615610100020316600290048015610be25780601f10610bb757610100808354040283529160200191610be2565b820191906000526020600020905b815481529060010190602001808311610bc557829003601f168201915b505050505090806003018054600181600116156101000203166002900480601f016020809104026020016040519081016040528092919081815260200182805460018160011615610100020316600290048015610c805780601f10610c5557610100808354040283529160200191610c80565b820191906000526020600020905b815481529060010190602001808311610c6357829003601f168201915b5050505050908060040154908060050160009054906101000a900473ffffffffffffffffffffffffffffffffffffffff16908060050160149054906101000a900460ff16905087565b600060e0604051908101604052806003548152602001858152602001848152602001602060405190810160405280600081525081526020018381526020018673ffffffffffffffffffffffffffffffffffffffff168152602001600015158152506000806003548152602001908152602001600020600082015181600001556020820151816001019080519060200190610d6492919061165a565b506040820151816002019080519060200190610d8192919061165a565b506060820151816003019080519060200190610d9e92919061165a565b506080820151816004015560a08201518160050160006101000a81548173ffffffffffffffffffffffffffffffffffffffff021916908373ffffffffffffffffffffffffffffffffffffffff16021790555060c08201518160050160146101000a81548160ff021916908315150217905550905050600160036000828254019250508190555060019050949350505050565b60606000600260008473ffffffffffffffffffffffffffffffffffffffff1673ffffffffffffffffffffffffffffffffffffffff168152602001908152602001600020905080805480602002602001604051908101604052809291908181526020016000905b82821015610f52578382906000526020600020018054600181600116156101000203166002900480601f016020809104026020016040519081016040528092919081815260200182805460018160011615610100020316600290048015610f3e5780601f10610f1357610100808354040283529160200191610f3e565b820191906000526020600020905b815481529060010190602001808311610f2157829003601f168201915b505050505081526020019060010190610e96565b50505050915050919050565b600080606085826000018190555084826001019080519060200190610f849291906116da565b5083826003019080519060200190610f9d9291906116da565b50868260050160006101000a81548173ffffffffffffffffffffffffffffffffffffffff021916908373ffffffffffffffffffffffffffffffffffffffff16021790555060018260050160146101000a81548160ff02191690831515021790555081600080888152602001908152602001600020600082015481600001556001820181600101908054600181600116156101000203166002900461104292919061175a565b506002820181600201908054600181600116156101000203166002900461106a92919061175a565b506003820181600301908054600181600116156101000203166002900461109292919061175a565b50600482015481600401556005820160009054906101000a900473ffffffffffffffffffffffffffffffffffffffff168160050160006101000a81548173ffffffffffffffffffffffffffffffffffffffff021916908373ffffffffffffffffffffffffffffffffffffffff1602179055506005820160149054906101000a900460ff168160050160146101000a81548160ff021916908315150217905550905050600160008873ffffffffffffffffffffffffffffffffffffffff1673ffffffffffffffffffffffffffffffffffffffff1681526020019081526020016000206000808881526020019081526020016000209080600181540180825580915050906001820390600052602060002090600602016000909192909190915060008201548160000155600182018160010190805460018160011615610100020316600290046111e192919061175a565b506002820181600201908054600181600116156101000203166002900461120992919061175a565b506003820181600301908054600181600116156101000203166002900461123192919061175a565b50600482015481600401556005820160009054906101000a900473ffffffffffffffffffffffffffffffffffffffff168160050160006101000a81548173ffffffffffffffffffffffffffffffffffffffff021916908373ffffffffffffffffffffffffffffffffffffffff1602179055506005820160149054906101000a900460ff168160050160146101000a81548160ff02191690831515021790555050505060405160200180807f6100000000000000000000000000000000000000000000000000000000000000815250600101807f2000000000000000000000000000000000000000000000000000000000000000815250600101807f636f6e636174656e617465640000000000000000000000000000000000000000815250600c01807f2000000000000000000000000000000000000000000000000000000000000000815250600101807f737472696e67000000000000000000000000000000000000000000000000000081525060060190506040516020818303038152906040529050600260008873ffffffffffffffffffffffffffffffffffffffff1673ffffffffffffffffffffffffffffffffffffffff16815260200190815260200160002081908060018154018082558091505090600182039060005260206000200160009091929091909150908051906020019061142f9291906116da565b50507f6aa224d9a147e03e9bddf1ddd629bfc82a342f2dadde2d788ade0cba89b902dd600080888152602001908152602001600020600001546000808981526020019081526020016000206001016000808a81526020019081526020016000206002016000808b8152602001908152602001600020600401548b6000808d815260200190815260200160002060050160149054906101000a900460ff166040516114de96959493929190611d6e565b60405180910390a1600192505050949350505050565b60026020528160005260406000208181548110151561150f57fe5b90600052602060002001600091509150508054600181600116156101000203166002900480601f0160208091040260200160405190810160405280929190818152602001828054600181600116156101000203166002900480156115b45780601f10611589576101008083540402835291602001916115b4565b820191906000526020600020905b81548152906001019060200180831161159757829003601f168201915b505050505081565b60e0604051908101604052806000815260200160608152602001606081526020016060815260200160008152602001600073ffffffffffffffffffffffffffffffffffffffff1681526020016000151581525090565b50805460018160011615610100020316600290046000825580601f106116385750611657565b601f01602090049060005260206000209081019061165691906117e1565b5b50565b828054600181600116156101000203166002900490600052602060002090601f016020900481019282601f1061169b57805160ff19168380011785556116c9565b828001600101855582156116c9579182015b828111156116c85782518255916020019190600101906116ad565b5b5090506116d691906117e1565b5090565b828054600181600116156101000203166002900490600052602060002090601f016020900481019282601f1061171b57805160ff1916838001178555611749565b82800160010185558215611749579182015b8281111561174857825182559160200191906001019061172d565b5b50905061175691906117e1565b5090565b828054600181600116156101000203166002900490600052602060002090601f016020900481019282601f1061179357805485556117d0565b828001600101855582156117d057600052602060002091601f016020900482015b828111156117cf5782548255916001019190600101906117b4565b5b5090506117dd91906117e1565b5090565b61180391905b808211156117ff5760008160009055506001016117e7565b5090565b90565b60006118128235611ee2565b905092915050565b600082601f830112151561182d57600080fd5b813561184061183b82611e33565b611e06565b9150808252602083016020830185838301111561185c57600080fd5b611867838284611f0c565b50505092915050565b600061187c8235611f02565b905092915050565b60006020828403121561189657600080fd5b60006118a484828501611806565b91505092915050565b600080600080608085870312156118c357600080fd5b60006118d187828801611806565b945050602085013567ffffffffffffffff8111156118ee57600080fd5b6118fa8782880161181a565b935050604085013567ffffffffffffffff81111561191757600080fd5b6119238782880161181a565b925050606061193487828801611870565b91505092959194509250565b6000806040838503121561195357600080fd5b600061196185828601611806565b925050602061197285828601611870565b9150509250929050565b6000806000806080858703121561199257600080fd5b60006119a087828801611806565b94505060206119b187828801611870565b935050604085013567ffffffffffffffff8111156119ce57600080fd5b6119da8782880161181a565b925050606085013567ffffffffffffffff8111156119f757600080fd5b611a038782880161181a565b91505092959194509250565b600060208284031215611a2157600080fd5b6000611a2f84828501611870565b91505092915050565b60008060408385031215611a4b57600080fd5b6000611a5985828601611870565b9250506020611a6a85828601611806565b9150509250929050565b611a7d81611eac565b82525050565b6000611a8e82611e7e565b80845260208401935083602082028501611aa785611e5f565b60005b84811015611ae0578383038852611ac2838351611b36565b9250611acd82611e9f565b9150602088019750600181019050611aaa565b508196508694505050505092915050565b611afa81611ecc565b82525050565b6000611b0b82611e94565b808452611b1f816020860160208601611f1b565b611b2881611f4e565b602085010191505092915050565b6000611b4182611e89565b808452611b55816020860160208601611f1b565b611b5e81611f4e565b602085010191505092915050565b600081546001811660008114611b895760018114611ba957611bea565b607f600283041680865260ff198316602087015260408601935050611bea565b60028204808652602086019550611bbf85611e6c565b60005b82811015611be157815481890152600182019150602081019050611bc2565b80880195505050505b505092915050565b611bfb81611ed8565b82525050565b60006020820190508181036000830152611c1b8184611a83565b905092915050565b6000602082019050611c386000830184611af1565b92915050565b60006020820190508181036000830152611c588184611b36565b905092915050565b6000602082019050611c756000830184611bf2565b92915050565b600060c082019050611c906000830189611bf2565b8181036020830152611ca28188611b00565b90508181036040830152611cb68187611b00565b9050611cc56060830186611bf2565b611cd26080830185611a74565b611cdf60a0830184611af1565b979650505050505050565b600060e082019050611cff600083018a611bf2565b8181036020830152611d118189611b36565b90508181036040830152611d258188611b36565b90508181036060830152611d398187611b36565b9050611d486080830186611bf2565b611d5560a0830185611a74565b611d6260c0830184611af1565b98975050505050505050565b600060c082019050611d836000830189611bf2565b8181036020830152611d958188611b6c565b90508181036040830152611da98187611b6c565b9050611db86060830186611bf2565b611dc56080830185611a74565b611dd260a0830184611af1565b979650505050505050565b6000604082019050611df26000830185611bf2565b611dff6020830184611bf2565b9392505050565b6000604051905081810181811067ffffffffffffffff82111715611e2957600080fd5b8060405250919050565b600067ffffffffffffffff821115611e4a57600080fd5b601f19601f8301169050602081019050919050565b6000602082019050919050565b60008160005260206000209050919050565b600081519050919050565b600081519050919050565b600081519050919050565b6000602082019050919050565b600073ffffffffffffffffffffffffffffffffffffffff82169050919050565b60008115159050919050565b6000819050919050565b600073ffffffffffffffffffffffffffffffffffffffff82169050919050565b6000819050919050565b82818337600083830152505050565b60005b83811015611f39578082015181840152602081019050611f1e565b83811115611f48576000848401525b50505050565b6000601f19601f83011690509190505600a265627a7a72305820e00de558532779b1948fb1f60dc9527826efc492ea5ed41d4ebcd5e72d3477fe6c6578706572696d656e74616cf50037",
  "source": "pragma solidity >=0.4.24 <0.6.2;\r\npragma experimental ABIEncoderV2;\r\ncontract Stuff {\r\n    struct stuffInfo{\r\n        uint code;\r\n        string name;\r\n        string description;\r\n        string src;\r\n        uint cost;\r\n        address owner;\r\n        bool isBuy;\r\n    }\r\n    mapping(uint=> stuffInfo) public stuffArray;\r\n    mapping(address=> stuffInfo[]) public personal;\r\n    mapping(address=> string[]) public personalitems;\r\n    uint public num;\r\n    uint public subnum;\r\n\r\n    event  StuffInfo(uint code, string name,string description, uint cost, address owner, bool isBuy);\r\n    constructor() public {\r\n        num = 0;\r\n    }\r\n\r\n    // Adopting a items\r\n    function buy(address buyer, uint stuffCode, string memory name, string memory src) public returns(bool success) {\r\n        // require(stuffArray[stuffCode].isBuy == false);\r\n        // stuffArray[stuffCode].owner = msg.sender;         //  \r\n        // stuffArray[stuffCode].isBuy = true;                   //    \r\n        // personal[buyer].push(stuffArray[stuffCode]); //    \r\n        stuffInfo sutff;\r\n        sutff.code = stuffCode;\r\n        sutff.name = name;\r\n        sutff.src = src;\r\n        sutff.owner = buyer;\r\n        sutff.isBuy = true;\r\n        stuffArray[stuffCode] = sutff;\r\n        personal[buyer].push(stuffArray[stuffCode]);\r\n        \r\n//        string items = uint2str(stuffCode) + \",\" + name + \",\" + src + \",\" + buyer + \",\" + \"1\";\r\n        //string sStuffCode = uint2str(stuffCode);\r\n        \r\n        string memory s = string(abi.encodePacked(\"a\", \" \", \"concatenated\", \" \", \"string\"));\r\n        personalitems[buyer].push(s);\r\n        emit StuffInfo(stuffArray[stuffCode].code, stuffArray[stuffCode].name,stuffArray[stuffCode].description, stuffArray[stuffCode].cost, buyer,stuffArray[stuffCode].isBuy);\r\n        return true;\r\n    }\r\n    \r\n    function registerStuff(address _owner, string _name, string _description, uint _cost) public returns(bool success){\r\n        \r\n        // stuffInfo memory tmp= stuffInfo(num,_name,_description,_cost,_owner,false);\r\n        stuffArray[num]=stuffInfo(num,_name,_description,'',_cost,_owner,false);\r\n        num+=1;\r\n\r\n        return true;\r\n    }\r\n    \r\n    function deleteStuff(uint _code, address _owner ) public returns(bool success) {\r\n        require(stuffArray[_code].owner ==_owner);\r\n        require(stuffArray[_code].code ==_code);\r\n        delete stuffArray[_code];\r\n        subnum+=1;\r\n        \r\n        return true;\r\n    }\r\n    \r\n    // function getStuff(uint id) public view returns(uint, string , string , uint ,address , bool ){\r\n    //     // stuffInfo memory tmp=stuffArray[id];\r\n    //     return (tmp.code,tmp.name, tmp.description,tmp.cost,tmp.owner,tmp.isBuy);\r\n    // }\r\n    function getStuff(address buyer) public view returns(string[] memory){\r\n        // stuffInfo memory tmp=stuffArray[id];\r\n        string[] storage result = personalitems[buyer];\r\n        return result;\r\n    }    \r\n    function getnum() public view returns( uint,uint){\r\n        return (num, subnum);\r\n    }\r\n    \r\n    function getPersonal(address addr)public view returns(uint){\r\n        return personal[addr].length;\r\n    }\r\n    \r\n    function getPersonalStuff(address addr, uint id) public view returns(uint, string , string , uint ,address , bool ){\r\n        stuffInfo memory tmp=personal[addr][id];\r\n        return (tmp.code,tmp.name, tmp.description,tmp.cost,tmp.owner,tmp.isBuy);\r\n    }\r\n    function uint2str(uint i) internal pure returns (string){\r\n        if (i == 0) return \"0\";\r\n        uint j = i;\r\n        uint length;\r\n        while (j != 0){\r\n            length++;\r\n            j /= 10;\r\n        }\r\n        bytes memory bstr = new bytes(length);\r\n        uint k = length - 1;\r\n        while (i != 0){\r\n            bstr[k--] = byte(48 + i % 10);\r\n            i /= 10;\r\n        }\r\n        return string(bstr);\r\n    }        \r\n\r\n}",
  "sourcePath": "D:\\BlockChainDApp\\Store_Dapp\\contracts\\Stuff.sol",
  "compiler": {
    "name": "solc",
    "version": "0.4.24+commit.e67f0147.Emscripten.clang"
  },
  "schemaVersion": "3.0.23",
  "updatedAt": "2020-03-13T05:13:34.058Z",
  "devdoc": {
    "methods": {}
  },
  "userdoc": {
    "methods": {}
  }
}