{
  "contractName": "Stuff",
  "abi": [
    {
      "constant": true,
      "inputs": [],
      "name": "subnum",
      "outputs": [
        {
          "name": "",
          "type": "uint256"
        }
      ],
      "payable": false,
      "stateMutability": "view",
      "type": "function"
    },
    {
      "constant": true,
      "inputs": [
        {
          "name": "",
          "type": "uint256"
        }
      ],
      "name": "stuffArray",
      "outputs": [
        {
          "name": "code",
          "type": "uint256"
        },
        {
          "name": "name",
          "type": "string"
        },
        {
          "name": "imgsrc",
          "type": "string"
        },
        {
          "name": "cost",
          "type": "uint256"
        }
      ],
      "payable": false,
      "stateMutability": "view",
      "type": "function"
    },
    {
      "constant": true,
      "inputs": [],
      "name": "num",
      "outputs": [
        {
          "name": "",
          "type": "uint256"
        }
      ],
      "payable": false,
      "stateMutability": "view",
      "type": "function"
    },
    {
      "constant": true,
      "inputs": [
        {
          "name": "",
          "type": "address"
        },
        {
          "name": "",
          "type": "uint256"
        }
      ],
      "name": "personalitems",
      "outputs": [
        {
          "name": "code",
          "type": "uint256"
        },
        {
          "name": "name",
          "type": "string"
        },
        {
          "name": "imgsrc",
          "type": "string"
        },
        {
          "name": "cost",
          "type": "uint256"
        }
      ],
      "payable": false,
      "stateMutability": "view",
      "type": "function"
    },
    {
      "inputs": [],
      "payable": false,
      "stateMutability": "nonpayable",
      "type": "constructor"
    },
    {
      "anonymous": false,
      "inputs": [
        {
          "indexed": false,
          "name": "code",
          "type": "uint256"
        },
        {
          "indexed": false,
          "name": "name",
          "type": "string"
        },
        {
          "indexed": false,
          "name": "imgsrc",
          "type": "string"
        },
        {
          "indexed": false,
          "name": "cost",
          "type": "uint256"
        }
      ],
      "name": "StuffInfo",
      "type": "event"
    },
    {
      "constant": false,
      "inputs": [
        {
          "name": "buyer",
          "type": "address"
        },
        {
          "name": "stuffCode",
          "type": "uint256"
        },
        {
          "name": "name",
          "type": "string"
        },
        {
          "name": "src",
          "type": "string"
        },
        {
          "name": "cost",
          "type": "uint256"
        }
      ],
      "name": "stuffbuy",
      "outputs": [
        {
          "name": "success",
          "type": "bool"
        }
      ],
      "payable": false,
      "stateMutability": "nonpayable",
      "type": "function"
    },
    {
      "constant": false,
      "inputs": [
        {
          "name": "_owner",
          "type": "address"
        },
        {
          "name": "_name",
          "type": "string"
        },
        {
          "name": "_imgsrc",
          "type": "string"
        },
        {
          "name": "_cost",
          "type": "uint256"
        }
      ],
      "name": "registerStuff",
      "outputs": [
        {
          "name": "success",
          "type": "bool"
        }
      ],
      "payable": false,
      "stateMutability": "nonpayable",
      "type": "function"
    },
    {
      "constant": false,
      "inputs": [
        {
          "name": "_code",
          "type": "uint256"
        },
        {
          "name": "_owner",
          "type": "address"
        }
      ],
      "name": "deleteStuff",
      "outputs": [
        {
          "name": "success",
          "type": "bool"
        }
      ],
      "payable": false,
      "stateMutability": "nonpayable",
      "type": "function"
    },
    {
      "constant": true,
      "inputs": [
        {
          "name": "buyer",
          "type": "address"
        }
      ],
      "name": "getStuff",
      "outputs": [
        {
          "name": "",
          "type": "string"
        }
      ],
      "payable": false,
      "stateMutability": "view",
      "type": "function"
    },
    {
      "constant": true,
      "inputs": [],
      "name": "getnum",
      "outputs": [
        {
          "name": "",
          "type": "uint256"
        },
        {
          "name": "",
          "type": "uint256"
        }
      ],
      "payable": false,
      "stateMutability": "view",
      "type": "function"
    }
  ],
  "bytecode": "0x608060405234801561001057600080fd5b506000600281905550611742806100286000396000f300608060405260043610610099576000357c0100000000000000000000000000000000000000000000000000000000900463ffffffff1680630fb37e4b1461009e57806335eb04d0146100c95780634e70b1dc146101e95780637d3688731461021457806387afa42114610246578063b696a94a146102ab578063db8285d81461039c578063f03b199814610497578063f9c1a9ba14610553575b600080fd5b3480156100aa57600080fd5b506100b3610693565b6040518082815260200191505060405180910390f35b3480156100d557600080fd5b506100f460048036038101908080359060200190929190505050610699565b604051808581526020018060200180602001848152602001838103835286818151815260200191508051906020019080838360005b83811015610144578082015181840152602081019050610129565b50505050905090810190601f1680156101715780820380516001836020036101000a031916815260200191505b50838103825285818151815260200191508051906020019080838360005b838110156101aa57808201518184015260208101905061018f565b50505050905090810190601f1680156101d75780820380516001836020036101000a031916815260200191505b50965050505050505060405180910390f35b3480156101f557600080fd5b506101fe6107f9565b6040518082815260200191505060405180910390f35b34801561022057600080fd5b506102296107ff565b604051808381526020018281526020019250505060405180910390f35b34801561025257600080fd5b5061029160048036038101908080359060200190929190803573ffffffffffffffffffffffffffffffffffffffff169060200190929190505050610810565b604051808215151515815260200191505060405180910390f35b3480156102b757600080fd5b50610382600480360381019080803573ffffffffffffffffffffffffffffffffffffffff169060200190929190803590602001908201803590602001908080601f0160208091040260200160405190810160405280939291908181526020018383808284378201915050505050509192919290803590602001908201803590602001908080601f016020809104026020016040519081016040528093929190818152602001838380828437820191505050505050919291929080359060200190929190505050610872565b604051808215151515815260200191505060405180910390f35b3480156103a857600080fd5b5061047d600480360381019080803573ffffffffffffffffffffffffffffffffffffffff16906020019092919080359060200190929190803590602001908201803590602001908080601f0160208091040260200160405190810160405280939291908181526020018383808284378201915050505050509192919290803590602001908201803590602001908080601f01602080910402602001604051908101604052809392919081815260200183838082843782019150505050505091929192908035906020019092919050505061091a565b604051808215151515815260200191505060405180910390f35b3480156104a357600080fd5b506104d8600480360381019080803573ffffffffffffffffffffffffffffffffffffffff169060200190929190505050610ae1565b6040518080602001828103825283818151815260200191508051906020019080838360005b838110156105185780820151818401526020810190506104fd565b50505050905090810190601f1680156105455780820380516001836020036101000a031916815260200191505b509250505060405180910390f35b34801561055f57600080fd5b5061059e600480360381019080803573ffffffffffffffffffffffffffffffffffffffff1690602001909291908035906020019092919050505061124f565b604051808581526020018060200180602001848152602001838103835286818151815260200191508051906020019080838360005b838110156105ee5780820151818401526020810190506105d3565b50505050905090810190601f16801561061b5780820380516001836020036101000a031916815260200191505b50838103825285818151815260200191508051906020019080838360005b83811015610654578082015181840152602081019050610639565b50505050905090810190601f1680156106815780820380516001836020036101000a031916815260200191505b50965050505050505060405180910390f35b60035481565b6000602052806000526040600020600091509050806000015490806001018054600181600116156101000203166002900480601f01602080910402602001604051908101604052809291908181526020018280546001816001161561010002031660029004801561074b5780601f106107205761010080835404028352916020019161074b565b820191906000526020600020905b81548152906001019060200180831161072e57829003601f168201915b505050505090806002018054600181600116156101000203166002900480601f0160208091040260200160405190810160405280929190818152602001828054600181600116156101000203166002900480156107e95780601f106107be576101008083540402835291602001916107e9565b820191906000526020600020905b8154815290600101906020018083116107cc57829003601f168201915b5050505050908060030154905084565b60025481565b600080600254600354915091509091565b600080600084815260200190815260200160002060008082016000905560018201600061083d9190611522565b60028201600061084d9190611522565b6003820160009055505060016003600082825401925050819055506001905092915050565b600060806040519081016040528060025481526020018581526020018481526020018381525060008060025481526020019081526020016000206000820151816000015560208201518160010190805190602001906108d292919061156a565b5060408201518160020190805190602001906108ef92919061156a565b5060608201518160030155905050600160026000828254019250508190555060019050949350505050565b6000808581600001819055508481600101908051906020019061093e9291906115ea565b50838160020190805190602001906109579291906115ea565b5082816003018190555080600080600254815260200190815260200160002060008201548160000155600182018160010190805460018160011615610100020316600290046109a792919061166a565b50600282018160020190805460018160011615610100020316600290046109cf92919061166a565b5060038201548160030155905050600160008873ffffffffffffffffffffffffffffffffffffffff1673ffffffffffffffffffffffffffffffffffffffff1681526020019081526020016000206000806002548152602001908152602001600020908060018154018082558091505090600182039060005260206000209060040201600090919290919091506000820154816000015560018201816001019080546001816001161561010002031660029004610a8c92919061166a565b5060028201816002019080546001816001161561010002031660029004610ab492919061166a565b50600382015481600301555050506001600260008282540192505081905550600191505095945050505050565b60608060606000606080606080606080600160008c73ffffffffffffffffffffffffffffffffffffffff1673ffffffffffffffffffffffffffffffffffffffff168152602001908152602001600020805480602002602001604051908101604052809291908181526020016000905b82821015610cdb57838290600052602060002090600402016080604051908101604052908160008201548152602001600182018054600181600116156101000203166002900480601f016020809104026020016040519081016040528092919081815260200182805460018160011615610100020316600290048015610c175780601f10610bec57610100808354040283529160200191610c17565b820191906000526020600020905b815481529060010190602001808311610bfa57829003601f168201915b50505050508152602001600282018054600181600116156101000203166002900480601f016020809104026020016040519081016040528092919081815260200182805460018160011615610100020316600290048015610cb95780601f10610c8e57610100808354040283529160200191610cb9565b820191906000526020600020905b815481529060010190602001808311610c9c57829003601f168201915b5050505050815260200160038201548152505081526020019060010190610b50565b505050509850600096505b885187101561123e57610d138988815181101515610d0057fe5b90602001906020020151600001516113cb565b9550610d398988815181101515610d2657fe5b90602001906020020151606001516113cb565b94508887815181101515610d4957fe5b906020019060200201516040015193508887815181101515610d6757fe5b90602001906020020151602001519250610d80876113cb565b91506040516020018060000190506040516020818303038152906040526040518082805190602001908083835b602083101515610dd25780518252602082019150602081019050602083039250610dad565b6001836020036101000a038019825116818451168082178552505050505050905001915050604051809103902060001916846040516020018082805190602001908083835b602083101515610e3c5780518252602082019150602081019050602083039250610e17565b6001836020036101000a0380198251168184511680821785525050505050509050019150506040516020818303038152906040526040518082805190602001908083835b602083101515610ea55780518252602082019150602081019050602083039250610e80565b6001836020036101000a0380198251168184511680821785525050505050509050019150506040518091039020600019161415610ee157611231565b85858585856040516020018086805190602001908083835b602083101515610f1e5780518252602082019150602081019050602083039250610ef9565b6001836020036101000a038019825116818451168082178552505050505050905001807f2f2f00000000000000000000000000000000000000000000000000000000000081525060020185805190602001908083835b602083101515610f995780518252602082019150602081019050602083039250610f74565b6001836020036101000a038019825116818451168082178552505050505050905001807f2f2f00000000000000000000000000000000000000000000000000000000000081525060020184805190602001908083835b6020831015156110145780518252602082019150602081019050602083039250610fef565b6001836020036101000a038019825116818451168082178552505050505050905001807f2f2f00000000000000000000000000000000000000000000000000000000000081525060020183805190602001908083835b60208310151561108f578051825260208201915060208101905060208303925061106a565b6001836020036101000a038019825116818451168082178552505050505050905001807f2f2f00000000000000000000000000000000000000000000000000000000000081525060020182805190602001908083835b60208310151561110a57805182526020820191506020810190506020830392506110e5565b6001836020036101000a03801982511681845116808217855250505050505090500195505050505050604051602081830303815290604052905087816040516020018083805190602001908083835b60208310151561117e5780518252602082019150602081019050602083039250611159565b6001836020036101000a03801982511681845116808217855250505050505090500182805190602001908083835b6020831015156111d157805182526020820191506020810190506020830392506111ac565b6001836020036101000a038019825116818451168082178552505050505050905001807f2c2c2c2c000000000000000000000000000000000000000000000000000000008152506004019250505060405160208183030381529060405297505b8680600101975050610ce6565b879950505050505050505050919050565b60016020528160005260406000208181548110151561126a57fe5b906000526020600020906004020160009150915050806000015490806001018054600181600116156101000203166002900480601f01602080910402602001604051908101604052809291908181526020018280546001816001161561010002031660029004801561131d5780601f106112f25761010080835404028352916020019161131d565b820191906000526020600020905b81548152906001019060200180831161130057829003601f168201915b505050505090806002018054600181600116156101000203166002900480601f0160208091040260200160405190810160405280929190818152602001828054600181600116156101000203166002900480156113bb5780601f10611390576101008083540402835291602001916113bb565b820191906000526020600020905b81548152906001019060200180831161139e57829003601f168201915b5050505050908060030154905084565b60606000806060600080861415611419576040805190810160405280600181526020017f30000000000000000000000000000000000000000000000000000000000000008152509450611519565b8593505b600084141515611443578280600101935050600a8481151561143b57fe5b04935061141d565b826040519080825280601f01601f1916602001820160405280156114765781602001602082028038833980820191505090505b5091506001830390505b60008614151561151557600a8681151561149657fe5b066030017f0100000000000000000000000000000000000000000000000000000000000000028282806001900393508151811015156114d157fe5b9060200101907effffffffffffffffffffffffffffffffffffffffffffffffffffffffffffff1916908160001a905350600a8681151561150d57fe5b049550611480565b8194505b50505050919050565b50805460018160011615610100020316600290046000825580601f106115485750611567565b601f01602090049060005260206000209081019061156691906116f1565b5b50565b828054600181600116156101000203166002900490600052602060002090601f016020900481019282601f106115ab57805160ff19168380011785556115d9565b828001600101855582156115d9579182015b828111156115d85782518255916020019190600101906115bd565b5b5090506115e691906116f1565b5090565b828054600181600116156101000203166002900490600052602060002090601f016020900481019282601f1061162b57805160ff1916838001178555611659565b82800160010185558215611659579182015b8281111561165857825182559160200191906001019061163d565b5b50905061166691906116f1565b5090565b828054600181600116156101000203166002900490600052602060002090601f016020900481019282601f106116a357805485556116e0565b828001600101855582156116e057600052602060002091601f016020900482015b828111156116df5782548255916001019190600101906116c4565b5b5090506116ed91906116f1565b5090565b61171391905b8082111561170f5760008160009055506001016116f7565b5090565b905600a165627a7a7230582021d237ca0ae3a9b49288e065ba0cae227979d91ae54b4a1ecda79dcde99b185f0029",
  "source": "pragma solidity  >=0.4.24 <0.7.0;\r\n\r\ncontract Stuff {\r\n    struct stuffInfo{\r\n        uint code;\r\n        string name;\r\n        string imgsrc;\r\n        uint cost;\r\n\r\n    }\r\n    mapping(uint=> stuffInfo) public stuffArray;\r\n    //mapping(address=> stuffInfo[]) public personal;\r\n    mapping(address=> stuffInfo[]) public personalitems;\r\n    uint public num;\r\n    uint public subnum;\r\n\r\n    event  StuffInfo(uint code, string name,string imgsrc, uint cost);\r\n    constructor() public {\r\n        num = 0;\r\n    }\r\n\r\n    // Adopting a itemss\r\n    function stuffbuy(address buyer, uint stuffCode, string memory name, string memory src, uint cost) public returns(bool success) {\r\n        \r\n        stuffInfo storage stuff;\r\n        stuff.code = stuffCode;\r\n        stuff.name = name;\r\n        stuff.imgsrc = src;\r\n        stuff.cost = cost;\r\n        \r\n        stuffArray[num] = stuff;\r\n       \r\n        \r\n        \r\n        //personalitems[buyer].push(stuffArray[stuffCode]); //���� ���� ���ǿ� �߰�\r\n        personalitems[buyer].push(stuffArray[num]); //���� ���� ���ǿ� �߰� \r\n        num += 1;\r\n    \r\n \r\n        //emit StuffInfo(stuffArray[_stuffCode].code, stuffArray[_stuffCode].name,stuffArray[_stuffCode].imgsrc, stuffArray[_stuffCode].cost);\r\n        return true;\r\n    }\r\n    // owner\r\n    function registerStuff(address _owner, string _name, string _imgsrc, uint _cost) public returns(bool success){\r\n        \r\n        \r\n        stuffArray[num]=stuffInfo(num,_name,_imgsrc,_cost);\r\n        num+=1;\r\n\r\n        return true;\r\n    }\r\n    \r\n    function deleteStuff(uint _code, address _owner ) public returns(bool success) {\r\n\r\n        delete stuffArray[_code];\r\n        subnum+=1;\r\n        \r\n        return true;\r\n    }\r\n    \r\n    // function getStuff(uint id) public view returns(uint, string , string , uint ,address , bool ){\r\n    //     // stuffInfo memory tmp=stuffArray[id];\r\n    //     return (tmp.code,tmp.name, tmp.description,tmp.cost,tmp.owner,tmp.isBuy);\r\n    // }\r\n    function getStuff(address buyer) public view returns(string memory){\r\n        stuffInfo[] memory items = personalitems[buyer];\r\n        string memory citems;\r\n        \r\n        for( uint i=0; i<items.length; i++){\r\n            string memory stuffCode = uint2str(items[i].code);\r\n            string memory cost = uint2str(items[i].cost);\r\n            string memory imgsrc = items[i].imgsrc;\r\n            string memory name = items[i].name;\r\n            string memory index = uint2str(i);\r\n            if(keccak256(abi.encodePacked(imgsrc)) == keccak256(abi.encodePacked(\"\"))){\r\n                continue;\r\n            }\r\n            string memory val = string(abi.encodePacked(stuffCode, \"//\", cost, \"//\", imgsrc, \"//\", name, \"//\", index));\r\n            \r\n            citems = string(abi.encodePacked(citems, val, \",,,,\"));\r\n        }\r\n        return citems;\r\n    }    \r\n    function getnum() public view returns( uint,uint){\r\n        return (num, subnum);\r\n    }\r\n    \r\n    // function getPersonal(address addr)public view returns(uint){\r\n    //     return personal[addr].length;\r\n    // }\r\n    \r\n    // function getPersonalStuff(address addr, uint id) public view returns(uint, string , string , uint ,address , bool ){\r\n    //     stuffInfo memory tmp=personal[addr][id];\r\n    //     return (tmp.code,tmp.name, tmp.description,tmp.cost,tmp.owner,tmp.isBuy);\r\n    // }\r\n    function uint2str(uint i) internal pure returns (string){\r\n        if (i == 0) return \"0\";\r\n        uint j = i;\r\n        uint length;\r\n        while (j != 0){\r\n            length++;\r\n            j /= 10;\r\n        }\r\n        bytes memory bstr = new bytes(length);\r\n        uint k = length - 1;\r\n        while (i != 0){\r\n            bstr[k--] = byte(48 + i % 10);\r\n            i /= 10;\r\n        }\r\n        return string(bstr);\r\n    }        \r\n\r\n}",
  "sourcePath": "D:\\BlockChainDApp\\Store_Dapp\\contracts\\Stuff.sol",
  "compiler": {
    "name": "solc",
    "version": "0.4.24+commit.e67f0147.Emscripten.clang"
  },
  "schemaVersion": "3.0.23",
  "updatedAt": "2020-03-13T08:31:12.599Z",
  "devdoc": {
    "methods": {}
  },
  "userdoc": {
    "methods": {}
  }
}