{
  "contractName": "Stuff",
  "abi": [
    {
      "constant": true,
      "inputs": [
        {
          "name": "",
          "type": "uint256"
        }
      ],
      "name": "stuffArray",
      "outputs": [
        {
          "name": "code",
          "type": "uint256"
        },
        {
          "name": "cost",
          "type": "uint256"
        },
        {
          "name": "name",
          "type": "string"
        },
        {
          "name": "imgsrc",
          "type": "string"
        }
      ],
      "payable": false,
      "stateMutability": "view",
      "type": "function"
    },
    {
      "constant": true,
      "inputs": [],
      "name": "num",
      "outputs": [
        {
          "name": "",
          "type": "uint256"
        }
      ],
      "payable": false,
      "stateMutability": "view",
      "type": "function"
    },
    {
      "constant": false,
      "inputs": [],
      "name": "acceptOwnership",
      "outputs": [],
      "payable": false,
      "stateMutability": "nonpayable",
      "type": "function"
    },
    {
      "constant": true,
      "inputs": [],
      "name": "owner",
      "outputs": [
        {
          "name": "",
          "type": "address"
        }
      ],
      "payable": false,
      "stateMutability": "view",
      "type": "function"
    },
    {
      "constant": true,
      "inputs": [],
      "name": "newOwner",
      "outputs": [
        {
          "name": "",
          "type": "address"
        }
      ],
      "payable": false,
      "stateMutability": "view",
      "type": "function"
    },
    {
      "constant": false,
      "inputs": [
        {
          "name": "_newOwner",
          "type": "address"
        }
      ],
      "name": "transferOwnership",
      "outputs": [],
      "payable": false,
      "stateMutability": "nonpayable",
      "type": "function"
    },
    {
      "constant": true,
      "inputs": [
        {
          "name": "",
          "type": "address"
        },
        {
          "name": "",
          "type": "uint256"
        }
      ],
      "name": "personalitems",
      "outputs": [
        {
          "name": "code",
          "type": "uint256"
        },
        {
          "name": "cost",
          "type": "uint256"
        },
        {
          "name": "name",
          "type": "string"
        },
        {
          "name": "imgsrc",
          "type": "string"
        }
      ],
      "payable": false,
      "stateMutability": "view",
      "type": "function"
    },
    {
      "inputs": [],
      "payable": false,
      "stateMutability": "nonpayable",
      "type": "constructor"
    },
    {
      "anonymous": false,
      "inputs": [
        {
          "indexed": false,
          "name": "code",
          "type": "uint256"
        },
        {
          "indexed": false,
          "name": "name",
          "type": "string"
        },
        {
          "indexed": false,
          "name": "imgsrc",
          "type": "string"
        },
        {
          "indexed": false,
          "name": "cost",
          "type": "uint256"
        }
      ],
      "name": "StuffInfo",
      "type": "event"
    },
    {
      "anonymous": false,
      "inputs": [
        {
          "indexed": true,
          "name": "_from",
          "type": "address"
        },
        {
          "indexed": true,
          "name": "_to",
          "type": "address"
        }
      ],
      "name": "OwnershipTransferred",
      "type": "event"
    },
    {
      "constant": false,
      "inputs": [
        {
          "name": "_buyer",
          "type": "address"
        },
        {
          "name": "_stuffCode",
          "type": "uint256"
        },
        {
          "name": "_name",
          "type": "string"
        },
        {
          "name": "_src",
          "type": "string"
        },
        {
          "name": "_cost",
          "type": "uint256"
        }
      ],
      "name": "stuffbuy",
      "outputs": [
        {
          "name": "success",
          "type": "bool"
        }
      ],
      "payable": false,
      "stateMutability": "nonpayable",
      "type": "function"
    },
    {
      "constant": false,
      "inputs": [
        {
          "name": "_name",
          "type": "string"
        },
        {
          "name": "_imgsrc",
          "type": "string"
        },
        {
          "name": "_cost",
          "type": "uint256"
        }
      ],
      "name": "registerStuff",
      "outputs": [
        {
          "name": "success",
          "type": "bool"
        }
      ],
      "payable": false,
      "stateMutability": "nonpayable",
      "type": "function"
    },
    {
      "constant": false,
      "inputs": [
        {
          "name": "buyer",
          "type": "address"
        },
        {
          "name": "index",
          "type": "uint256"
        }
      ],
      "name": "deleteMyStuff",
      "outputs": [
        {
          "name": "success",
          "type": "bool"
        }
      ],
      "payable": false,
      "stateMutability": "nonpayable",
      "type": "function"
    },
    {
      "constant": false,
      "inputs": [
        {
          "name": "_code",
          "type": "uint256"
        }
      ],
      "name": "deleteStuff",
      "outputs": [
        {
          "name": "success",
          "type": "bool"
        }
      ],
      "payable": false,
      "stateMutability": "nonpayable",
      "type": "function"
    },
    {
      "constant": true,
      "inputs": [],
      "name": "getStuff",
      "outputs": [
        {
          "name": "",
          "type": "string"
        }
      ],
      "payable": false,
      "stateMutability": "view",
      "type": "function"
    },
    {
      "constant": true,
      "inputs": [
        {
          "name": "buyer",
          "type": "address"
        }
      ],
      "name": "getMyStuff",
      "outputs": [
        {
          "name": "",
          "type": "string"
        }
      ],
      "payable": false,
      "stateMutability": "view",
      "type": "function"
    },
    {
      "constant": true,
      "inputs": [],
      "name": "getnum",
      "outputs": [
        {
          "name": "",
          "type": "uint256"
        }
      ],
      "payable": false,
      "stateMutability": "view",
      "type": "function"
    }
  ],
  "bytecode": "0x608060405234801561001057600080fd5b50336000806101000a81548173ffffffffffffffffffffffffffffffffffffffff021916908373ffffffffffffffffffffffffffffffffffffffff16021790555060096004819055506121e8806100686000396000f3006080604052600436106100d0576000357c0100000000000000000000000000000000000000000000000000000000900463ffffffff16806329690ace146100d55780632bda5c5c146101a6578063315d69fd146101eb57806335eb04d0146102a75780634e70b1dc146103c757806379ba5097146103f25780637d3688731461040957806387405758146104345780638da5cb5b146104c45780639b9bb01b1461051b578063d4ee1d9014610580578063db8285d8146105d7578063f2fde38b146106d2578063f9c1a9ba14610715575b600080fd5b3480156100e157600080fd5b5061018c600480360381019080803590602001908201803590602001908080601f0160208091040260200160405190810160405280939291908181526020018383808284378201915050505050509192919290803590602001908201803590602001908080601f016020809104026020016040519081016040528093929190818152602001838380828437820191505050505050919291929080359060200190929190505050610855565b604051808215151515815260200191505060405180910390f35b3480156101b257600080fd5b506101d1600480360381019080803590602001909291905050506108f8565b604051808215151515815260200191505060405180910390f35b3480156101f757600080fd5b5061022c600480360381019080803573ffffffffffffffffffffffffffffffffffffffff16906020019092919050505061095a565b6040518080602001828103825283818151815260200191508051906020019080838360005b8381101561026c578082015181840152602081019050610251565b50505050905090810190601f1680156102995780820380516001836020036101000a031916815260200191505b509250505060405180910390f35b3480156102b357600080fd5b506102d2600480360381019080803590602001909291905050506110c8565b604051808581526020018481526020018060200180602001838103835285818151815260200191508051906020019080838360005b83811015610322578082015181840152602081019050610307565b50505050905090810190601f16801561034f5780820380516001836020036101000a031916815260200191505b50838103825284818151815260200191508051906020019080838360005b8381101561038857808201518184015260208101905061036d565b50505050905090810190601f1680156103b55780820380516001836020036101000a031916815260200191505b50965050505050505060405180910390f35b3480156103d357600080fd5b506103dc611228565b6040518082815260200191505060405180910390f35b3480156103fe57600080fd5b5061040761122e565b005b34801561041557600080fd5b5061041e6113cd565b6040518082815260200191505060405180910390f35b34801561044057600080fd5b506104496113d7565b6040518080602001828103825283818151815260200191508051906020019080838360005b8381101561048957808201518184015260208101905061046e565b50505050905090810190601f1680156104b65780820380516001836020036101000a031916815260200191505b509250505060405180910390f35b3480156104d057600080fd5b506104d9611a6e565b604051808273ffffffffffffffffffffffffffffffffffffffff1673ffffffffffffffffffffffffffffffffffffffff16815260200191505060405180910390f35b34801561052757600080fd5b50610566600480360381019080803573ffffffffffffffffffffffffffffffffffffffff16906020019092919080359060200190929190505050611a93565b604051808215151515815260200191505060405180910390f35b34801561058c57600080fd5b50610595611b2c565b604051808273ffffffffffffffffffffffffffffffffffffffff1673ffffffffffffffffffffffffffffffffffffffff16815260200191505060405180910390f35b3480156105e357600080fd5b506106b8600480360381019080803573ffffffffffffffffffffffffffffffffffffffff16906020019092919080359060200190929190803590602001908201803590602001908080601f0160208091040260200160405190810160405280939291908181526020018383808284378201915050505050509192919290803590602001908201803590602001908080601f016020809104026020016040519081016040528093929190818152602001838380828437820191505050505050919291929080359060200190929190505050611b52565b604051808215151515815260200191505060405180910390f35b3480156106de57600080fd5b50610713600480360381019080803573ffffffffffffffffffffffffffffffffffffffff169060200190929190505050611cd6565b005b34801561072157600080fd5b50610760600480360381019080803573ffffffffffffffffffffffffffffffffffffffff16906020019092919080359060200190929190505050611d75565b604051808581526020018481526020018060200180602001838103835285818151815260200191508051906020019080838360005b838110156107b0578082015181840152602081019050610795565b50505050905090810190601f1680156107dd5780820380516001836020036101000a031916815260200191505b50838103825284818151815260200191508051906020019080838360005b838110156108165780820151818401526020810190506107fb565b50505050905090810190601f1680156108435780820380516001836020036101000a031916815260200191505b50965050505050505060405180910390f35b6000608060405190810160405280600454815260200183815260200185815260200184815250600260006004548152602001908152602001600020600082015181600001556020820151816001015560408201518160020190805190602001906108c0929190612048565b5060608201518160030190805190602001906108dd929190612048565b50905050600160045401600481905550600190509392505050565b600060026000838152602001908152602001600020600080820160009055600182016000905560028201600061092e91906120c8565b60038201600061093e91906120c8565b5050600160046000828254039250508190555060019050919050565b60608060606000606080606080606080600360008c73ffffffffffffffffffffffffffffffffffffffff1673ffffffffffffffffffffffffffffffffffffffff168152602001908152602001600020805480602002602001604051908101604052809291908181526020016000905b82821015610b545783829060005260206000209060040201608060405190810160405290816000820154815260200160018201548152602001600282018054600181600116156101000203166002900480601f016020809104026020016040519081016040528092919081815260200182805460018160011615610100020316600290048015610a9a5780601f10610a6f57610100808354040283529160200191610a9a565b820191906000526020600020905b815481529060010190602001808311610a7d57829003601f168201915b50505050508152602001600382018054600181600116156101000203166002900480601f016020809104026020016040519081016040528092919081815260200182805460018160011615610100020316600290048015610b3c5780601f10610b1157610100808354040283529160200191610b3c565b820191906000526020600020905b815481529060010190602001808311610b1f57829003601f168201915b505050505081525050815260200190600101906109c9565b505050509850600096505b88518710156110b757610b8c8988815181101515610b7957fe5b9060200190602002015160000151611ef1565b9550610bb28988815181101515610b9f57fe5b9060200190602002015160200151611ef1565b94508887815181101515610bc257fe5b906020019060200201516060015193508887815181101515610be057fe5b90602001906020020151604001519250610bf987611ef1565b91506040516020018060000190506040516020818303038152906040526040518082805190602001908083835b602083101515610c4b5780518252602082019150602081019050602083039250610c26565b6001836020036101000a038019825116818451168082178552505050505050905001915050604051809103902060001916836040516020018082805190602001908083835b602083101515610cb55780518252602082019150602081019050602083039250610c90565b6001836020036101000a0380198251168184511680821785525050505050509050019150506040516020818303038152906040526040518082805190602001908083835b602083101515610d1e5780518252602082019150602081019050602083039250610cf9565b6001836020036101000a0380198251168184511680821785525050505050509050019150506040518091039020600019161415610d5a576110aa565b85858585856040516020018086805190602001908083835b602083101515610d975780518252602082019150602081019050602083039250610d72565b6001836020036101000a038019825116818451168082178552505050505050905001807f2c0000000000000000000000000000000000000000000000000000000000000081525060010185805190602001908083835b602083101515610e125780518252602082019150602081019050602083039250610ded565b6001836020036101000a038019825116818451168082178552505050505050905001807f2c0000000000000000000000000000000000000000000000000000000000000081525060010184805190602001908083835b602083101515610e8d5780518252602082019150602081019050602083039250610e68565b6001836020036101000a038019825116818451168082178552505050505050905001807f2c0000000000000000000000000000000000000000000000000000000000000081525060010183805190602001908083835b602083101515610f085780518252602082019150602081019050602083039250610ee3565b6001836020036101000a038019825116818451168082178552505050505050905001807f2c0000000000000000000000000000000000000000000000000000000000000081525060010182805190602001908083835b602083101515610f835780518252602082019150602081019050602083039250610f5e565b6001836020036101000a03801982511681845116808217855250505050505090500195505050505050604051602081830303815290604052905087816040516020018083805190602001908083835b602083101515610ff75780518252602082019150602081019050602083039250610fd2565b6001836020036101000a03801982511681845116808217855250505050505090500182805190602001908083835b60208310151561104a5780518252602082019150602081019050602083039250611025565b6001836020036101000a038019825116818451168082178552505050505050905001807f2f2f0000000000000000000000000000000000000000000000000000000000008152506002019250505060405160208183030381529060405297505b8680600101975050610b5f565b879950505050505050505050919050565b6002602052806000526040600020600091509050806000015490806001015490806002018054600181600116156101000203166002900480601f0160208091040260200160405190810160405280929190818152602001828054600181600116156101000203166002900480156111805780601f1061115557610100808354040283529160200191611180565b820191906000526020600020905b81548152906001019060200180831161116357829003601f168201915b505050505090806003018054600181600116156101000203166002900480601f01602080910402602001604051908101604052809291908181526020018280546001816001161561010002031660029004801561121e5780601f106111f35761010080835404028352916020019161121e565b820191906000526020600020905b81548152906001019060200180831161120157829003601f168201915b5050505050905084565b60045481565b600160009054906101000a900473ffffffffffffffffffffffffffffffffffffffff1673ffffffffffffffffffffffffffffffffffffffff163373ffffffffffffffffffffffffffffffffffffffff1614151561128a57600080fd5b600160009054906101000a900473ffffffffffffffffffffffffffffffffffffffff1673ffffffffffffffffffffffffffffffffffffffff166000809054906101000a900473ffffffffffffffffffffffffffffffffffffffff1673ffffffffffffffffffffffffffffffffffffffff167f8be0079c531659141344cd1fd0a4f28419497f9722a3daafe3b4186f6b6457e060405160405180910390a3600160009054906101000a900473ffffffffffffffffffffffffffffffffffffffff166000806101000a81548173ffffffffffffffffffffffffffffffffffffffff021916908373ffffffffffffffffffffffffffffffffffffffff1602179055506000600160006101000a81548173ffffffffffffffffffffffffffffffffffffffff021916908373ffffffffffffffffffffffffffffffffffffffff160217905550565b6000600454905090565b6060806000606080606080606080600996505b60045487111515611a60576114146002600089815260200190815260200160002060000154611ef1565b95506114356002600089815260200190815260200160002060010154611ef1565b9450600260008881526020019081526020016000206003018054600181600116156101000203166002900480601f0160208091040260200160405190810160405280929190818152602001828054600181600116156101000203166002900480156114e15780601f106114b6576101008083540402835291602001916114e1565b820191906000526020600020905b8154815290600101906020018083116114c457829003601f168201915b50505050509350600260008881526020019081526020016000206002018054600181600116156101000203166002900480601f0160208091040260200160405190810160405280929190818152602001828054600181600116156101000203166002900480156115925780601f1061156757610100808354040283529160200191611592565b820191906000526020600020905b81548152906001019060200180831161157557829003601f168201915b505050505092506115a287611ef1565b91506040516020018060000190506040516020818303038152906040526040518082805190602001908083835b6020831015156115f457805182526020820191506020810190506020830392506115cf565b6001836020036101000a038019825116818451168082178552505050505050905001915050604051809103902060001916836040516020018082805190602001908083835b60208310151561165e5780518252602082019150602081019050602083039250611639565b6001836020036101000a0380198251168184511680821785525050505050509050019150506040516020818303038152906040526040518082805190602001908083835b6020831015156116c757805182526020820191506020810190506020830392506116a2565b6001836020036101000a038019825116818451168082178552505050505050905001915050604051809103902060001916141561170357611a53565b85858585856040516020018086805190602001908083835b602083101515611740578051825260208201915060208101905060208303925061171b565b6001836020036101000a038019825116818451168082178552505050505050905001807f2c0000000000000000000000000000000000000000000000000000000000000081525060010185805190602001908083835b6020831015156117bb5780518252602082019150602081019050602083039250611796565b6001836020036101000a038019825116818451168082178552505050505050905001807f2c0000000000000000000000000000000000000000000000000000000000000081525060010184805190602001908083835b6020831015156118365780518252602082019150602081019050602083039250611811565b6001836020036101000a038019825116818451168082178552505050505050905001807f2c0000000000000000000000000000000000000000000000000000000000000081525060010183805190602001908083835b6020831015156118b1578051825260208201915060208101905060208303925061188c565b6001836020036101000a038019825116818451168082178552505050505050905001807f2c0000000000000000000000000000000000000000000000000000000000000081525060010182805190602001908083835b60208310151561192c5780518252602082019150602081019050602083039250611907565b6001836020036101000a03801982511681845116808217855250505050505090500195505050505050604051602081830303815290604052905087816040516020018083805190602001908083835b6020831015156119a0578051825260208201915060208101905060208303925061197b565b6001836020036101000a03801982511681845116808217855250505050505090500182805190602001908083835b6020831015156119f357805182526020820191506020810190506020830392506119ce565b6001836020036101000a038019825116818451168082178552505050505050905001807f2f2f0000000000000000000000000000000000000000000000000000000000008152506002019250505060405160208183030381529060405297505b86806001019750506113ea565b879850505050505050505090565b6000809054906101000a900473ffffffffffffffffffffffffffffffffffffffff1681565b6000600360008473ffffffffffffffffffffffffffffffffffffffff1673ffffffffffffffffffffffffffffffffffffffff16815260200190815260200160002082815481101515611ae157fe5b90600052602060002090600402016000808201600090556001820160009055600282016000611b1091906120c8565b600382016000611b2091906120c8565b50506001905092915050565b600160009054906101000a900473ffffffffffffffffffffffffffffffffffffffff1681565b6000600885111515611be557608060405190810160405280868152602001838152602001858152602001848152506002600087815260200190815260200160002060008201518160000155602082015181600101556040820151816002019080519060200190611bc3929190612048565b506060820151816003019080519060200190611be0929190612048565b509050505b600360008773ffffffffffffffffffffffffffffffffffffffff1673ffffffffffffffffffffffffffffffffffffffff1681526020019081526020016000206002600087815260200190815260200160002090806001815401808255809150509060018203906000526020600020906004020160009091929091909150600082015481600001556001820154816001015560028201816002019080546001816001161561010002031660029004611c9d929190612110565b5060038201816003019080546001816001161561010002031660029004611cc5929190612110565b505050506001905095945050505050565b6000809054906101000a900473ffffffffffffffffffffffffffffffffffffffff1673ffffffffffffffffffffffffffffffffffffffff163373ffffffffffffffffffffffffffffffffffffffff16141515611d3157600080fd5b80600160006101000a81548173ffffffffffffffffffffffffffffffffffffffff021916908373ffffffffffffffffffffffffffffffffffffffff16021790555050565b600360205281600052604060002081815481101515611d9057fe5b906000526020600020906004020160009150915050806000015490806001015490806002018054600181600116156101000203166002900480601f016020809104026020016040519081016040528092919081815260200182805460018160011615610100020316600290048015611e495780601f10611e1e57610100808354040283529160200191611e49565b820191906000526020600020905b815481529060010190602001808311611e2c57829003601f168201915b505050505090806003018054600181600116156101000203166002900480601f016020809104026020016040519081016040528092919081815260200182805460018160011615610100020316600290048015611ee75780601f10611ebc57610100808354040283529160200191611ee7565b820191906000526020600020905b815481529060010190602001808311611eca57829003601f168201915b5050505050905084565b60606000806060600080861415611f3f576040805190810160405280600181526020017f3000000000000000000000000000000000000000000000000000000000000000815250945061203f565b8593505b600084141515611f69578280600101935050600a84811515611f6157fe5b049350611f43565b826040519080825280601f01601f191660200182016040528015611f9c5781602001602082028038833980820191505090505b5091506001830390505b60008614151561203b57600a86811515611fbc57fe5b066030017f010000000000000000000000000000000000000000000000000000000000000002828280600190039350815181101515611ff757fe5b9060200101907effffffffffffffffffffffffffffffffffffffffffffffffffffffffffffff1916908160001a905350600a8681151561203357fe5b049550611fa6565b8194505b50505050919050565b828054600181600116156101000203166002900490600052602060002090601f016020900481019282601f1061208957805160ff19168380011785556120b7565b828001600101855582156120b7579182015b828111156120b657825182559160200191906001019061209b565b5b5090506120c49190612197565b5090565b50805460018160011615610100020316600290046000825580601f106120ee575061210d565b601f01602090049060005260206000209081019061210c9190612197565b5b50565b828054600181600116156101000203166002900490600052602060002090601f016020900481019282601f106121495780548555612186565b8280016001018555821561218657600052602060002091601f016020900482015b8281111561218557825482559160010191906001019061216a565b5b5090506121939190612197565b5090565b6121b991905b808211156121b557600081600090555060010161219d565b5090565b905600a165627a7a723058202df1b54178853f84bc72d04f2d1a69966d86a1e61a39b8a89e0e54b7823aea7c0029",
  "source": "pragma solidity  >=0.4.24 <0.7.0;\r\n\r\n// ----------------------------------------------------------------------------\r\n// Owned contract\r\n// ----------------------------------------------------------------------------\r\ncontract Owned {\r\n    address public owner;\r\n    address public newOwner;\r\n\r\n    event OwnershipTransferred(address indexed _from, address indexed _to);\r\n\r\n    constructor() public {\r\n        owner = msg.sender;\r\n    }\r\n\r\n    modifier onlyOwner {\r\n        require(msg.sender == owner);\r\n        _;\r\n    }\r\n\r\n    function transferOwnership(address _newOwner) public onlyOwner {\r\n        newOwner = _newOwner;\r\n    }\r\n    function acceptOwnership() public {\r\n        require(msg.sender == newOwner);\r\n        emit OwnershipTransferred(owner, newOwner);\r\n        owner = newOwner;\r\n        newOwner = address(0);\r\n    }\r\n}\r\ncontract Stuff is Owned{\r\n    struct stuffInfo{\r\n        uint code;\r\n        uint cost;\r\n        string name;\r\n        string imgsrc;\r\n    }\r\n    mapping(uint=> stuffInfo) public stuffArray;\r\n    //mapping(address=> stuffInfo[]) public personal;\r\n    mapping(address=> stuffInfo[]) public personalitems;\r\n    uint public num;\r\n    // uint public subnum;\r\n\r\n    event  StuffInfo(uint code, string name,string imgsrc, uint cost);\r\n    constructor() public {\r\n        num = 9;\r\n    }\r\n\r\n    // Adopting a itemss\r\n    function stuffbuy(address _buyer, uint _stuffCode, string memory _name, string memory _src, uint _cost) public returns(bool success ) {\r\n        \r\n\r\n        if(_stuffCode <=8){ \r\n            stuffArray[_stuffCode]=stuffInfo(_stuffCode,_cost,_name,_src);\r\n        }\r\n\r\n        personalitems[_buyer].push(stuffArray[_stuffCode]);\r\n        \r\n        // emit StuffInfo(stuffArray[_stuffCode].code, stuffArray[_stuffCode].name,stuffArray[_stuffCode].imgsrc, stuffArray[_stuffCode].cost);\r\n        return true;\r\n    }\r\n    // owner\r\n    function registerStuff(string _name, string _imgsrc, uint _cost) public returns(bool success){\r\n        \r\n        \r\n        stuffArray[num]=stuffInfo(num,_cost,_name,_imgsrc);\r\n        num = num + 1;\r\n\r\n        return true;\r\n    }\r\n    function deleteMyStuff(address buyer, uint index) public returns(bool success) {\r\n\r\n        delete personalitems[buyer][index];\r\n        return true;\r\n    }\r\n    function deleteStuff(uint _code) public returns(bool success) {\r\n\r\n        delete stuffArray[_code];\r\n        num -= 1;\r\n        return true;\r\n    }\r\n    function getStuff() public view returns(string memory){\r\n        string memory citems;\r\n        for( uint i=9; i <= num; i++){\r\n            string memory stuffCode = uint2str(stuffArray[i].code);\r\n            string memory cost = uint2str(stuffArray[i].cost);\r\n            string memory imgsrc = stuffArray[i].imgsrc;\r\n            string memory name = stuffArray[i].name;\r\n            string memory index = uint2str(i);\r\n            if(keccak256(abi.encodePacked(name)) == keccak256(abi.encodePacked(\"\"))){\r\n                continue;\r\n            }\r\n            string memory val = string(abi.encodePacked(stuffCode, \",\", cost, \",\", imgsrc, \",\", name, \",\", index));\r\n            citems = string(abi.encodePacked(citems, val, \"//\"));\r\n        }\r\n        return citems;\r\n    } \r\n    function getMyStuff(address buyer) public view returns(string memory){\r\n        stuffInfo[] memory items = personalitems[buyer];\r\n        string memory citems;\r\n        \r\n        for( uint i=0; i<items.length; i++){\r\n            string memory stuffCode = uint2str(items[i].code);\r\n            string memory cost = uint2str(items[i].cost);\r\n            string memory imgsrc = items[i].imgsrc;\r\n            string memory name = items[i].name;\r\n            string memory index = uint2str(i);\r\n            if(keccak256(abi.encodePacked(name)) == keccak256(abi.encodePacked(\"\"))){\r\n                continue;\r\n            }\r\n            string memory val = string(abi.encodePacked(stuffCode, \",\", cost, \",\", imgsrc, \",\", name, \",\", index));\r\n            \r\n            citems = string(abi.encodePacked(citems, val, \"//\"));\r\n        }\r\n        return citems;\r\n    }    \r\n    function getnum() public view returns( uint){\r\n        return num;\r\n    }\r\n    \r\n    // function getPersonal(address addr)public view returns(uint){\r\n    //     return personal[addr].length;\r\n    // }\r\n    \r\n    // function getPersonalStuff(address addr, uint id) public view returns(uint, string , string , uint ,address , bool ){\r\n    //     stuffInfo memory tmp=personal[addr][id];\r\n    //     return (tmp.code,tmp.name, tmp.description,tmp.cost,tmp.owner,tmp.isBuy);\r\n    // }\r\n    function uint2str(uint i) internal pure returns (string){\r\n        if (i == 0) return \"0\";\r\n        uint j = i;\r\n        uint length;\r\n        while (j != 0){\r\n            length++;\r\n            j /= 10;\r\n        }\r\n        bytes memory bstr = new bytes(length);\r\n        uint k = length - 1;\r\n        while (i != 0){\r\n            bstr[k--] = byte(48 + i % 10);\r\n            i /= 10;\r\n        }\r\n        return string(bstr);\r\n    }\r\n\r\n}\r\n\r\n\r\n",
  "sourcePath": "D:\\BlockChainDApp\\Store_Dapp\\contracts\\Stuff.sol",
  "compiler": {
    "name": "solc",
    "version": "0.4.24+commit.e67f0147.Emscripten.clang"
  },
  "schemaVersion": "3.0.23",
  "updatedAt": "2020-03-16T03:52:55.130Z",
  "networkType": "ethereum",
  "devdoc": {
    "methods": {}
  },
  "userdoc": {
    "methods": {}
  }
}